:100000000C9483000C94AB000C94AB000C94AB00EC
:100010000C94AB000C94AB000C94AB000C94AB00B4
:100020000C94AB000C94AB000C94AB000C94AB00A4
:100030000C94AB000C94AB000C94AB000C94AB0094
:100040000C9481070C94AB000C94F1070C94CB0733
:100050000C94AB000C94AB000C94AB000C94AB0074
:100060000C9453060C94AB00084AD73B3BCE016E70
:1000700084BCBFFDC12F3D6C74319ABD56833DDAFF
:100080003D00C77F11BED9E4BB4C3E916BAAAABE0E
:10009000000000803F072C7AA5BA6CC590DA3B932C
:1000A00065FC8BBC53F810FD3C5692834DBD879D7B
:1000B0003AB63DCBC9BF5BBE73DA0FC93F00000043
:1000C0000000250028002B00040404040404040498
:1000D00002020202020203030303030301020408F3
:1000E00010204080010204081020010204081020A2
:1000F00000000008000201000003040700000000E7
:1001000000000000230811241FBECFEFD8E0DEBF9F
:10011000CDBF11E0A0E0B1E0E8EDFBE102C0059049
:100120000D92A435B107D9F722E0A4E5B1E001C0F2
:100130001D92A13FB207E1F710E0C3E8D0E004C090
:100140002197FE010E94700AC238D107C9F70E94A8
:10015000FA080C94EA0D0C940000282F309110023C
:10016000313208F04AC08091EC018111FCCF9091AE
:100170000F0242E04093EC012093EB012FEF20931C
:10018000EA011092E9013093E801EFEEF1E0A8EC0A
:10019000B1E020E0321721F041914D932F5FFACF6B
:1001A0001092C7012091C701990F922B9093C7011C
:1001B0009091C601913061F41092C6019091C701EF
:1001C0009093BB009091BC0093FDF8CF95EC01C0DB
:1001D00095EE9093BC009091EC019230E1F39091F8
:1001E000EA019F3F79F08091EA01803241F08091ED
:1001F000EA01803331F084E005C081E003C082E091
:1002000001C083E01092EE01109210021092ED01F5
:100210000895DC01ED91FC910190F081E02D0994AD
:100220000F931F93CF93DF938B01CAEED2E0988197
:1002300021E02093ED0190930F021092EE011092B5
:100240001002A981BA8124E0829FC0011124BC015F
:100250006A5F7F4FED91FC9111970190F081E02D45
:10026000CD01099560E070E089819A810E940901C1
:1002700060E070E089819A810E940901B80189815A
:100280009A810E940901612F70E089819A810E9400
:10029000090181E0DF91CF911F910F910C94AD0086
:1002A000CF93DF93EC01DB01A40FB51F8091AE0269
:1002B0009091AF028C179D0719F18091B202909135
:1002C000B302C817D907E1F08091B6029091B70246
:1002D000C817D907A9F08091BA029091BB02C8173C
:1002E000D90771F08091BE029091BF02C817D9075B
:1002F00039F08091C2029091C302C817D90731F436
:1003000084EB90E09C012A1B3B0BD90128E631E0ED
:100310000E94690A24EB30E040E050E00E94190A94
:10032000CA01B90164577F4F8F4F9F4F8C2FDF91C8
:10033000CF910C9410011F93CF93DF93162FCAEE29
:10034000D2E0988121E02093ED0190930F0210926A
:10035000EE0110921002A981BA81ED91FC911197E2
:100360000190F081E02D682FCD01099589819A8156
:10037000DC01ED91FC910190F081E02D612F099558
:1003800081E0DF91CF911F910C94AD0090E0FC01D2
:10039000E051FF4F2491FC01E452FF4F3491FC01E6
:1003A000E853FF4FE491EE23B1F1222339F12330DA
:1003B00091F038F42130A9F0223001F584B58F7D19
:1003C00012C0273091F02830A1F02430B9F4809188
:1003D00080008F7D03C0809180008F7780938000A4
:1003E0000DC084B58F7784BD09C08091B0008F7730
:1003F00003C08091B0008F7D8093B000F0E0EE0FDD
:10040000FF1FE254FF4FA591B4918FB7F894EC9180
:10041000E32BEC938FBF089585ED8093BC00809112
:10042000BC0084FDFCCF1092EC01089540917F0147
:10043000262F30E0240F311D21323105DCF42091CC
:10044000EC012430C9F4FC0180E090E0861758F4F8
:1004500030917F012191DC01A35ABE4FA30FB11D42
:100460002C930196F3CF80917F01680F60937F01F9
:1004700080E0089581E0089582E008950895089548
:100480000895E091A5018091A401E81730F4F0E00F
:10049000EA55FE4F808190E008958FEF9FEF089519
:1004A0009091A5018091A401981750F4E92FF0E0F4
:1004B000EA55FE4F208130E09F5F9093A50102C076
:1004C0002FEF3FEFC90108958091A40190E02091A2
:1004D000A501821B91090895CF92DF92EF92FF92BE
:1004E0000F931F93CF93DF937C01CB018A0120915F
:1004F000ED01222389F0EB016B01C40ED51ECC1552
:10050000DD0569F06991D701ED91FC910190F081D1
:10051000E02DC7010995F3CF642F0E941602C80190
:10052000DF91CF911F910F91FF90EF90DF90CF90CF
:100530000895CF93DF931F92CDB7DEB769832091E3
:10054000ED012223D1F020911002203240F021E071
:1005500030E0FC013383228380E090E015C080917D
:10056000EE01E82FF0E0E151FE4F998190838F5F1B
:100570008093EE018093100205C061E0CE010196E8
:100580000E94160281E090E00F90DF91CF910895D4
:100590003FB7F8948091590190915A01A0915B0165
:1005A000B0915C0126B5A89B05C02F3F19F00196BC
:1005B000A11DB11D3FBFBA2FA92F982F8827820FE9
:1005C000911DA11DB11DBC01CD0142E0660F771F39
:1005D000881F991F4A95D1F708958F929F92AF92E5
:1005E000BF92CF92DF92EF92FF926B017C010E944B
:1005F000C8024B015C01C114D104E104F104F1F023
:100600000E94C802DC01CB0188199909AA09BB091B
:10061000883E9340A105B10570F321E0C21AD108CC
:10062000E108F10888EE880E83E0981EA11CB11C39
:10063000C114D104E104F10419F7DDCFFF90EF906C
:10064000DF90CF90BF90AF909F908F900895CF9202
:10065000DF92EF92FF920F931F93CF93DF936C0182
:100660007A018B01C0E0D0E0CE15DF0581F0D80122
:100670006D918D01D601ED91FC910190F081E02DFD
:10068000C6010995892B11F02196EECF7E01C70195
:10069000DF91CF911F910F91FF90EF90DF90CF905E
:1006A0000895089580E090E00895FC01538D448DF5
:1006B000252F30E0842F90E0821B930B541710F00D
:1006C000CF96089501970895FC01918D828D98171A
:1006D00061F0828DDF01A80FB11D5D968C91928D26
:1006E0009F5F9F73928F90E008958FEF9FEF089523
:1006F000FC01918D828D981731F0828DE80FF11DEC
:10070000858D90E008958FEF9FEF0895FC01918D06
:10071000228D892F90E0805C9F4F821B91098F73FF
:100720009927089581E192E00E94860321E0892BB8
:1007300009F420E0822F0895FC01848DDF01A80FC9
:10074000B11DA35ABF4F2C91848D90E001968F73F9
:100750009927848FA689B7892C93A089B1898C9118
:10076000837080648C93938D848D981306C0028867
:10077000F389E02D80818F7D80830895EF92FF9231
:100780000F931F93CF93DF93EC0181E0888F9B8DB4
:100790008C8D981305C0E889F989808185FD26C074
:1007A000F62E0B8D10E00F5F1F4F0F731127E02EF9
:1007B0008C8DE8120CC00FB607FCFACFE889F989D6
:1007C000808185FFF5CFCE010E949C03F1CF8B8DF8
:1007D000FE01E80FF11DE35AFF4FF0829FB7F89436
:1007E0000B8FEA89FB89808180620AC09FB7F894E9
:1007F000EE89FF896083E889F9898081837080644C
:1008000080839FBF81E090E0DF91CF911F910F9196
:10081000FF90EF900895CF93DF93EC01888D8823AC
:10082000C9F0EA89FB89808185FD05C0A889B9895D
:100830008C9186FD0FC00FB607FCF5CF808185FF38
:10084000F2CFA889B9898C9185FFEDCFCE010E94A6
:100850009C03E7CFDF91CF91089580E090E0892B52
:1008600029F00E94920381110C94000008954F9288
:100870005F926F927F928F929F92AF92BF92CF9230
:10088000DF92EF92FF920F931F93CF93DF93CDB739
:10089000DEB72A970FB6F894DEBF0FBECDBF9A879A
:1008A00089874A015B0128013901C982DA82EB821A
:1008B000FC82A9019801C301B2010E94190D6B01CC
:1008C0007C01A5019401C501B4010E94190D9B0191
:1008D000AC01C701B6010E94880A0E948C0D6B0111
:1008E0007C01A3019201C501B4010E94070B4B01D9
:1008F0005C01A7019601C701B6010E94190D2B01E9
:100900003C0120E030E040E852E40E94880A20E008
:1009100030E048EC52E40E94870A6D837E838F8327
:100920009887A7019601C701B6010E94880A20E0B6
:1009300030E040E051E40E94190D9B01AC016D8153
:100940007E818F8198850E946B0B0E94760A6B01D5
:100950007C0126EE3EE245E652E4C501B4010E9468
:10096000190D4B015C0126EE3EE245E652E4C7015B
:10097000B6010E94190D9B01AC01C501B4010E9492
:10098000880A6B017C01A301920160E070E080E8BD
:1009900092E40E94870A20E030E048EC52E40E9492
:1009A000880A20E030E040E253E40E946B0B0E9492
:1009B000760A26EE3EE245E652E40E94190D4B010E
:1009C0005C01E985FA85EE0FFF1FEA53FD4F608059
:1009D000718069817A818B819C810E94DD0BE98520
:1009E000FA85EE0FFF1FE255FD4FA3018081918133
:1009F0000E945001E985FA85EE0FFF1FE253FD4F7B
:100A000060807180A701960160E070E084E393E468
:100A10000E94870A0E94DD0BE985FA85EE0FFF1F11
:100A2000EA54FD4FA301808191810E945001E98524
:100A3000FA85EE0FFF1FEA52FD4FE080F18020E0C3
:100A400030E04CE552E4C501B4010E94870A0E94DF
:100A5000DD0B29853A85220F331F22543D4FA70114
:100A6000F901808191812A960FB6F894DEBF0FBEFE
:100A7000CDBFDF91CF911F910F91FF90EF90DF904D
:100A8000CF90BF90AF909F908F907F906F905F902E
:100A90004F900C9450018F929F92AF92BF92CF9241
:100AA000DF92EF92FF92CF936B017C0120E030E068
:100AB00040E85FE30E94660B87FD12C020E030EC47
:100AC0004AE555E4C701B6010E940C0D181674F4EE
:100AD000C12C30ECD32E3AE5E32E35E4F32E06C0DC
:100AE000C12CD12C20E8E22E2FE3F22E6091ED02F2
:100AF0007091EE028091EF029091F0020E94130C2F
:100B00004B015C0120E030E040E855E4C701B6014C
:100B10000E94190D9B01AC01C501B4010E946B0B31
:100B200020E030E040E05FE30E94880A20E030E00F
:100B300040E85FE30E94870A6B017C0120E030E01F
:100B400040E450E40E94660B87FD11C020E030E0D5
:100B50004FE753E4C701B6010E940C0D181664F468
:100B6000C12CD12C9FE7E92E93E4F92E05C0C12CAE
:100B7000D12C80E4E82EFE2CC701B6010E94E40BC4
:100B8000F62E8091EA0291E09093ED0180930F029E
:100B90001092EE01109210028091EB029091EC0203
:100BA000DC01ED91FC910190F081E02D60E0099570
:100BB00081E00E94AD008091EA029091EC019111D8
:100BC000FCCF91E09093EC019093EB012FEF2093F9
:100BD000EA011092E9011092E8019093C701909107
:100BE000C701880F892B8093C7018091C60181308E
:100BF00061F41092C6018091C7018093BB0080917F
:100C0000BC0083FDF8CF85EC01C085EE8093BC006D
:100C10008091EC018130E1F38091E901811103C001
:100C20009091E90101C091E0A8ECB1E0E6EAF1E0C1
:100C300080E0891721F02D9121938F5FFACF1092D8
:100C4000A5018093A4018091EB029091EC02DC015C
:100C5000ED91FC910284F385E02D0995C82F682F52
:100C60006F76606180E00E949B016F2D8EEF0E9485
:100C70009B016C2F80E00E949B0165E070E080E0AA
:100C800090E00E94ED026C2F606A80E0CF91FF90AF
:100C9000EF90DF90CF90BF90AF909F908F900C948B
:100CA0009B010E94E50D1F920F920FB60F92112427
:100CB0002F933F934F935F936F937F938F939F9364
:100CC000AF93BF93EF93FF938091B900887F8036F5
:100CD00009F49CC068F5883209F45BC090F4803157
:100CE00009F454C038F4882309F4F6C0883009F4B4
:100CF0004DC0F6C0883109F44CC0803209F45DC0A3
:100D0000EFC0803409F468C048F4803309F455C05A
:100D1000883309F0E5C08093EA01D8C0803509F432
:100D20004FC0883509F45DC0883409F0D9C0D6C0F9
:100D3000883909F4C7C0A8F4883709F467C038F4C3
:100D4000883609F463C0803709F460C0C9C08838A8
:100D500009F4B8C0803909F45FC0803809F0C0C018
:100D60005BC0803B09F486C038F4803A09F466C061
:100D7000883A09F47FC0B4C0803C09F4A7C0883C1D
:100D800009F4A4C0883B09F48AC0AAC08091C701B5
:100D900010C09091E9018091E801981770F5E091F9
:100DA000E90181E08E0F8093E901F0E0E853FE4F06
:100DB00080818093BB0085EC86C08093EA018EC061
:100DC000E091E90181E08E0F8093E9018091BB0001
:100DD000F0E0E853FE4F80839091E9018091E801B3
:100DE0006EC0E091E90181E08E0F8093E90180916E
:100DF000BB00F0E0E853FE4F80838091EB0181114E
:100E00006DC081E08093C60184EA61C083E0809375
:100E1000EC011092A301CFCF8091A301803208F0A2
:100E200051C0E091A30181E08E0F8093A3018091D6
:100E3000BB00F0E0ED57FE4F8083BDCF85EC809383
:100E4000BC001092EC018091A301803230F4E0915B
:100E5000A301F0E0ED57FE4F10826091A30170E016
:100E6000E0918101F091820183E891E0099510926F
:100E7000A30136C084E08093EC01109280011092AF
:100E80007F01E0917D01F0917E01099580917F01C4
:100E9000811105C081E080937F0110925D01E09196
:100EA000800181E08E0F80938001F0E0E35AFE4FD5
:100EB00080818093BB009091800180917F01981781
:100EC00008F479CF85E88093BC000AC085EC809354
:100ED000BC001092EC0104C01092EA010E940C02C6
:100EE000FF91EF91BF91AF919F918F917F916F9102
:100EF0005F914F913F912F910F900FBE0F901F90D8
:100F000018951F920F920FB60F9211242F933F93B3
:100F10008F939F93AF93BF9380915501909156010A
:100F2000A0915701B09158013091540123E0230F53
:100F30002D3720F40196A11DB11D05C026E8230F11
:100F40000296A11DB11D20935401809355019093E9
:100F50005601A0935701B093580180915901909187
:100F60005A01A0915B01B0915C010196A11DB11DD8
:100F70008093590190935A01A0935B01B0935C0157
:100F8000BF91AF919F918F913F912F910F900FBE85
:100F90000F901F9018951F920F920FB60F92112469
:100FA0002F933F934F935F936F937F938F939F9371
:100FB000AF93BF93EF93FF9381E192E00E949C0374
:100FC000FF91EF91BF91AF919F918F917F916F9121
:100FD0005F914F913F912F910F900FBE0F901F90F7
:100FE00018951F920F920FB60F9211242F938F9383
:100FF0009F93EF93FF93E0912102F0912202808171
:10100000E0912702F091280282FD12C09081809128
:101010002A028F5F8F7320912B02821751F0E0918B
:101020002A02F0E0EF5EFD4F958F80932A0201C007
:101030008081FF91EF919F918F912F910F900FBE23
:101040000F901F901895CF93DF93CEEDD2E01B82C7
:101050001A8288EE93E0A0E0B0E08C839D83AE839B
:10106000BF8324E331E039832883E1E1F2E0138296
:10107000128284839583A683B78386E491E091836B
:10108000808385EC90E09587848784EC90E0978757
:10109000868780EC90E0918B808B81EC90E0938B45
:1010A000828B82EC90E0958B848B86EC90E0978B22
:1010B000868B118E128E138E148EEEEAF2E0A8E16A
:1010C000B1E08D919C9111979183808318968D91B9
:1010D0009C9119979187808750968D919C915197FB
:1010E000918B808B12968D919C9113979383828321
:1010F0001A968D919C911B979387828752968D911A
:101100009C915397938B828B14968D919C911597FC
:10111000958384831C968D919C911D9795878487D8
:1011200054968D919C915597958B848B16968D91A5
:101130009C911797978386831E968D919C911F97FC
:101140009787868756968D919C915797978B868B1C
:10115000A0E0B1E08D919C911197918F808F1896AE
:101160008D919C91199791A380A350968D919C91FC
:10117000519791A780A712968D919C911397938F69
:10118000828F1A968D919C911B9793A382A352965E
:101190008D919C91539793A782A714968D919C91C2
:1011A0001597958F848F1C968D919C911D9795A373
:1011B00084A354968D919C91559795A784A71696D4
:1011C0008D919C911797978F868F1E968D919C91EC
:1011D0001F9797A386A356968D919C91579797A793
:1011E00086A7EAEEF2E080E48083D283C183DF91B8
:1011F000CF910895789484B5826084BD84B5816070
:1012000084BD85B5826085BD85B5816085BD8091D1
:101210006E00816080936E00109281008091810049
:101220008260809381008091810081608093810041
:10123000809180008160809380008091B100846003
:101240008093B1008091B00081608093B000809164
:101250007A00846080937A0080917A008260809323
:101260007A0080917A00816080937A0080917A0080
:10127000806880937A001092C100E0912102F09181
:10128000220282E08083E0911D02F0911E02108212
:10129000E0911F02F09120028FEC808310922902CE
:1012A000E0912502F091260286E08083E0912302FE
:1012B000F0912402808180618083E0912302F0918B
:1012C0002402808188608083E0912302F0912402CF
:1012D000808180688083E0912302F09124028081E4
:1012E0008F7D80831092A5011092A4011092EE01CF
:1012F000109210021092EC0181E08093EB011092A9
:10130000C60182E10E94C60183E10E94C60180916C
:10131000B9008E7F8093B9008091B9008D7F809352
:10132000B90088E48093B80085E48093BC008EE324
:1013300092E090937E0180937D018FE392E0909301
:1013400082018093810160E880E00E949B016AE055
:1013500070E080E090E00E94ED0260E070E08AE7DB
:1013600094E40E944B0580E498E7ADE7B1E08093F8
:10137000ED029093EE02A093EF02B093F00260E0D2
:1013800070E080E792E40E944B0560E471E080E049
:101390000E941001C0E0D0E0C12CD12C80E7E82EE3
:1013A00082E4F82E00E010E020EE30E440E050E06F
:1013B00060E870E4CE010E94370464EF71E080E0E1
:1013C00090E00E94ED0200E010E020E231E440E015
:1013D00050E060E870E4CE010E94370464EF71E0F1
:1013E00080E090E00E94ED02C12CD12C90EFE92E1C
:1013F00092E4F92E00E010E020E231E440E050E019
:1014000060E870E4CE010E94370464EF71E080E090
:1014100090E00E94ED0268EC70E080E090E00E94B5
:10142000ED022196C430D10509F0B6CF0E942D04FB
:10143000B1CF052E97FB1EF400940E94300A57FD91
:1014400007D00E94380A07FC03D04EF40C94300AEF
:1014500050954095309521953F4F4F4F5F4F0895E0
:1014600090958095709561957F4F8F4F9F4F089510
:10147000A1E21A2EAA1BBB1BFD010DC0AA1FBB1F98
:10148000EE1FFF1FA217B307E407F50720F0A21B0A
:10149000B30BE40BF50B661F771F881F991F1A9477
:1014A00069F760957095809590959B01AC01BD01A1
:1014B000CF010895A29FB001B39FC001A39F700DFB
:1014C000811D1124911DB29F700D811D1124911D4C
:1014D00008950E945A0AB7FF0895821B930B08953E
:1014E000EE0FFF1F0590F491E02D09949F939F77D5
:1014F0000E94500C0F90002042F49058A2EA2AED6E
:101500003FE049E450E40E949F0A0C94D20C5058EA
:10151000BB27AA270E949F0A0C94D20C0E94C40CDD
:1015200038F00E94CB0C20F039F49F3F19F426F4D8
:101530000C949A0C0EF4E095E7FB0C94940CE92FB4
:101540000E94E30C58F3BA176207730784079507E4
:1015500020F079F4A6F50C94050D0EF4E0950B2E11
:10156000BA2FA02D0B01B90190010C01CA01A001F5
:101570001124FF27591B99F0593F50F4503E68F150
:101580001A16F040A22F232F342F4427585FF3CF91
:10159000469537952795A795F0405395C9F77EF462
:1015A0001F16BA0B620B730B840BBAF09150A1F0AB
:1015B000FF0FBB1F661F771F881FC2F70EC0BA0F31
:1015C000621F731F841F48F4879577956795B795B9
:1015D000F7959E3F08F0B0CF9395880F08F09927B4
:1015E000EE0F9795879508950E94C40C60F080E8EF
:1015F00091E009F49EEF0E94CB0C28F040E851E006
:1016000071F45EEF0CC00C949A0C0C94050DE92F4C
:10161000E0780E94E30C40F3092E052AB1F3261767
:1016200037074807590738F00E2E07F8E02569F00C
:10163000E025E0640AC0EF6307F8009407FADB01D5
:10164000B9019D01DC01CA01AD01EF930E94820B3B
:101650000E94D20C0E94370B5F91552339F02BED7D
:101660003FE049E450FD49EC0C94880A0895DF936B
:10167000DD27B92FBF7740E85FE316161706480746
:101680005B0718F4D92F0E94110D9F938F937F93BE
:101690006F930E94CC0DE8E6F0E00E949D0C0E9442
:1016A000D20C2F913F914F915F910E942C0DDD2321
:1016B00051F09058A2EA2AED3FE049EC5FE3D07880
:1016C0005D270E949F0ADF910C94D20C0E94700C3F
:1016D00008F481E008950E947F0B0C94D20C0E94C4
:1016E000CB0C58F00E94C40C40F029F45F3F29F065
:1016F0000C94940C51110C94060D0C949A0C0E94AD
:10170000E30C68F39923B1F3552391F3951B550B23
:10171000BB27AA2762177307840738F09F5F5F4FC4
:10172000220F331F441FAA1FA9F335D00E2E3AF003
:10173000E0E832D091505040E695001CCAF72BD01B
:10174000FE2F29D0660F771F881FBB1F261737076C
:101750004807AB07B0E809F0BB0B802DBF01FF279E
:1017600093585F4F3AF09E3F510578F00C94940CDB
:101770000C94060D5F3FE4F3983ED4F3869577957D
:101780006795B795F7959F5FC9F7880F911D969557
:10179000879597F90895E1E0660F771F881FBB1FB3
:1017A000621773078407BA0720F0621B730B840B60
:1017B000BA0BEE1F88F7E09508950E94E40B689439
:1017C000B1110C94060D08950E94EB0C88F09F5700
:1017D00098F0B92F9927B751B0F0E1F0660F771F55
:1017E000881F991F1AF0BA95C9F714C0B13091F04B
:1017F0000E94050DB1E008950C94050D672F782F18
:101800008827B85F39F0B93FCCF38695779567950F
:10181000B395D9F73EF490958095709561957F4F7B
:101820008F4F9F4F0895E89409C097FB3EF4909521
:101830008095709561957F4F8F4F9F4F9923A9F0A9
:10184000F92F96E9BB279395F69587957795679538
:10185000B795F111F8CFFAF4BB0F11F460FF1BC07C
:101860006F5F7F4F8F4F9F4F16C0882311F096E90F
:1018700011C0772321F09EE8872F762F05C06623BD
:1018800071F096E8862F70E060E02AF09A95660F76
:10189000771F881FDAF7880F9695879597F908952F
:1018A000DF93CF931F930F938B01EC01E5E9F0E0F9
:1018B0000E949D0C0E94D20C9801AE018B01EC019C
:1018C00060E070E080E89FE30E94870A0E948C0D30
:1018D0009801AE010F911F91CF91DF910C942C0DC7
:1018E000990F0008550FAA0BE0E8FEEF1616170631
:1018F000E807F907C0F012161306E407F50798F099
:10190000621B730B840B950B39F40A2661F0232BB1
:10191000242B252B21F408950A2609F4A140A6952D
:101920008FEF811D811D089597F99F6780E870E012
:1019300060E008959FEF80EC0895DF93CF931F93AD
:101940000F93FF92EF92DF927B018C01689406C0A7
:10195000DA2EEF010E942C0DFE01E894A59125914D
:10196000359145915591A6F3EF010E949F0AFE0122
:101970009701A801DA9469F7DF90EF90FF900F913B
:101980001F91CF91DF91089500240A94161617062F
:1019900018060906089500240A9412161306140660
:1019A00005060895092E0394000C11F4882352F0C3
:1019B000BB0F40F4BF2B11F460FF04C06F5F7F4F7B
:1019C0008F4F9F4F089557FD9058440F551F59F062
:1019D0005F3F71F04795880F97FB991F61F09F3F1C
:1019E00079F087950895121613061406551FF2CF45
:1019F0004695F1DF08C0161617061806991FF1CF95
:101A000086957105610508940895E894BB276627BB
:101A10007727CB0197F908950E94700C08F48FEF97
:101A200008959B01AC0160E070E080E89FE30C94B6
:101A30006B0B0E942C0D0C94D20C0E94C40C38F03D
:101A40000E94CB0C20F0952311F00C94940C0C9474
:101A50009A0C11240C94060D0E94E30C70F3959FD0
:101A6000C1F3950F50E0551F629FF001729FBB2795
:101A7000F00DB11D639FAA27F00DB11DAA1F649F31
:101A80006627B00DA11D661F829F2227B00DA11DE4
:101A9000621F739FB00DA11D621F839FA00D611D6A
:101AA000221F749F3327A00D611D231F849F600D8B
:101AB000211D822F762F6A2F11249F5750409AF0B4
:101AC000F1F088234AF0EE0FFF1FBB1F661F771F40
:101AD000881F91505040A9F79E3F510580F00C940B
:101AE000940C0C94060D5F3FE4F3983ED4F3869576
:101AF00077956795B795F795E7959F5FC1F7FE2BAB
:101B0000880F911D9695879597F9089519F416F405
:101B10000C949A0C0C94D00D0E94EB0CB8F3992302
:101B2000C9F3B6F39F57550B87FF0E94DE0D0024C3
:101B3000A0E640EA900180585695979528F4805C7D
:101B4000660F771F881F20F026173707480730F4E5
:101B5000621B730B840B202931294A2BA6951794FD
:101B60000794202531254A2758F7660F771F881FCD
:101B700020F026173707480730F4620B730B840BED
:101B8000200D311D411DA09581F7B901842F915879
:101B9000880F9695879508959B01AC010C94190DBB
:101BA0009F3F31F0915020F4879577956795B795D1
:101BB000880F911D9695879597F9089591505040FB
:101BC000660F771F881FD2F7089581E090E0F894A0
:081BD0000C94EA0DF894FFCF1C
:101BD800F9FF000005000000FDFF070004000300F6
:101BE80000000200020000000000010002000300E3
:101BF8000400050007000600080009000A000B00A1
:101C08000000000099026C02520340026402500274
:101C1800410200000000BE03270355030B0486039E
:041C280064037803D6
:00000001FF
