:100000000C9458000C9480000C9480000C94800098
:100010000C9480000C9480000C9480000C94800060
:100020000C9480000C9480000C9480000C94800050
:100030000C9480000C9480000C9480000C94800040
:100040000C9431060C9480000C94A1060C947B0651
:100050000C9480000C9480000C9480000C94800020
:100060000C9403050C94800000000000250028007B
:100070002B00040404040404040402020202020229
:10008000030303030303010204081020408001025C
:1000900004081020010204081020000000080002DB
:1000A0000100000304070000000000000000D30668
:1000B00011241FBECFEFD8E0DEBFCDBF11E0A0E01E
:1000C000B1E0E0E8F8E102C005900D92A036B1077A
:1000D000D9F723E0A0E6B1E001C01D92AD3BB20725
:1000E000E1F710E0C8E5D0E004C02197FE010E94CE
:1000F000FC09C735D107C9F70E941B080C943E0CB8
:100100000C940000282F30911C02313208F04AC0B4
:100110008091F8018111FCCF90911B0242E0409345
:10012000F8012093F7012FEF2093F6011092F501CB
:100130003093F401EBEFF1E0A4EDB1E020E03217F1
:1001400021F041914D932F5FFACF1092D30120916E
:10015000D301990F922B9093D3019091D2019130BA
:1001600061F41092D2019091D3019093BB009091D1
:10017000BC0093FDF8CF95EC01C095EE9093BC00C8
:100180009091F8019230E1F39091F6019F3F79F060
:100190008091F601803241F08091F601803331F098
:1001A00084E005C081E003C082E001C083E01092DA
:1001B000FA0110921C021092F90108951F93CF9337
:1001C000DF93162FC6ECD2E0988121E02093F9014D
:1001D00090931B021092FA0110921C02A981BA811D
:1001E000ED91FC9111970190F081E02D682FCD01E8
:1001F000099589819A81DC01ED91FC910190F08152
:10020000E02D612F099581E0DF91CF911F910C9432
:10021000820090E0FC01E656FF4F2491FC01EA5772
:10022000FF4F3491FC01EE58FF4FE491EE23B1F102
:10023000222339F1233091F038F42130A9F0223013
:1002400001F584B58F7D12C0273091F02830A1F0E0
:100250002430B9F4809180008F7D03C080918000AC
:100260008F77809380000DC084B58F7784BD09C0DF
:100270008091B0008F7703C08091B0008F7D809314
:10028000B000F0E0EE0FFF1FE859FF4FA591B491C9
:100290008FB7F894EC91E32BEC938FBF0895DC01BA
:1002A000ED91FC910190F081E02D0994CF92DF92C5
:1002B000EF92FF92CF93DF9300D000D01F92CDB783
:1002C000DEB749835A836B837C838D834B815C814A
:1002D000D901A40FB51F882331F084EB90E09C0175
:1002E0002A1B3B0BD90128E631E00E94F50924EBDB
:1002F00030E040E050E00E94A50969017A018CE8F5
:10030000C80ED11CE11CF11C69817A818091C60262
:1003100091E09093F90180931B021092FA011092E0
:100320001C028091C7029091C8027727660F771F41
:10033000660F771F6A5F7F4FDC01ED91FC910190A2
:10034000F081E02D099560E070E08091C702909106
:10035000C8020E944F0160E070E08091C702909156
:10036000C8020E944F01B6018091C7029091C80255
:100370000E944F016D2D70E08091C7029091C802DC
:100380000E944F0181E00F900F900F900F900F90FF
:10039000DF91CF91FF90EF90DF90CF900C9482008F
:1003A00085ED8093BC008091BC0084FDFCCF109251
:1003B000F801089540918B01262F30E0240F311D64
:1003C00021323105DCF42091F8012430C9F4FC011C
:1003D00080E090E0861758F430918B012191DC0188
:1003E000A759BE4FA30FB11D2C930196F3CF809157
:1003F0008B01680F60938B0180E0089581E0089580
:1004000082E00895089508950895E091B1018091E2
:10041000B001E81730F4F0E0EE54FE4F808190E038
:1004200008958FEF9FEF08959091B1018091B001F1
:10043000981750F4E92FF0E0EE54FE4F208130E0A1
:100440009F5F9093B10102C02FEF3FEFC901089564
:100450008091B00190E02091B101821B9109089533
:10046000CF92DF92EF92FF920F931F93CF93DF9380
:100470007C01CB018A012091F901222389F0EB0153
:100480006B01C40ED51ECC15DD0569F06991D7014D
:10049000ED91FC910190F081E02DC7010995F3CF1A
:1004A000642F0E94DA01C801DF91CF911F910F9153
:1004B000FF90EF90DF90CF900895CF93DF931F923E
:1004C000CDB7DEB769832091F9012223D1F02091C5
:1004D0001C02203240F021E030E0FC013383228313
:1004E00080E090E015C08091FA01E82FF0E0E5503F
:1004F000FE4F998190838F5F8093FA0180931C0255
:1005000005C061E0CE0101960E94DA0181E090E031
:100510000F90DF91CF9108953FB7F89480916501D6
:1005200090916601A0916701B091680126B5A89BE2
:1005300005C02F3F19F00196A11DB11D3FBFBA2F75
:10054000A92F982F8827820F911DA11DB11DBC01D5
:10055000CD0142E0660F771F881F991F4A95D1F79A
:1005600008958F929F92AF92BF92CF92DF92EF92B7
:10057000FF926B017C010E948C024B015C01C11453
:10058000D104E104F104F1F00E948C02DC01CB0102
:1005900088199909AA09BB09883E9340A105B105AC
:1005A00070F321E0C21AD108E108F10888EE880E44
:1005B00083E0981EA11CB11CC114D104E104F10414
:1005C00019F7DDCFFF90EF90DF90CF90BF90AF9005
:1005D0009F908F900895CF92DF92EF92FF920F93AA
:1005E0001F93CF93DF936C017A018B01C0E0D0E0C1
:1005F000CE15DF0581F0D8016D918D01D601ED9109
:10060000FC910190F081E02DC6010995892B11F034
:100610002196EECF7E01C701DF91CF911F910F91FF
:10062000FF90EF90DF90CF900895089580E090E0E4
:100630000895FC01538D448D252F30E0842F90E0E8
:10064000821B930B541710F0CF96089501970895CD
:10065000FC01918D828D981761F0828DDF01A80FCA
:10066000B11D5D968C91928D9F5F9F73928F90E0EC
:1006700008958FEF9FEF0895FC01918D828D98175B
:1006800031F0828DE80FF11D858D90E008958FEF98
:100690009FEF0895FC01918D228D892F90E0805C61
:1006A0009F4F821B91098F73992708958DE192E0E6
:1006B0000E944A0321E0892B09F420E0822F08954B
:1006C000FC01848DDF01A80FB11DA35ABF4F2C91EF
:1006D000848D90E001968F739927848FA689B789BE
:1006E0002C93A089B1898C91837080648C93938DB5
:1006F000848D981306C00288F389E02D80818F7D58
:1007000080830895EF92FF920F931F93CF93DF930F
:10071000EC0181E0888F9B8D8C8D981305C0E88952
:10072000F989808185FD26C0F62E0B8D10E00F5FC4
:100730001F4F0F731127E02E8C8DE8120CC00FB6DF
:1007400007FCFACFE889F989808185FFF5CFCE01D2
:100750000E946003F1CF8B8DFE01E80FF11DE35A7B
:10076000FF4FF0829FB7F8940B8FEA89FB89808155
:1007700080620AC09FB7F894EE89FF896083E88998
:10078000F98980818370806480839FBF81E090E0DD
:10079000DF91CF911F910F91FF90EF900895CF932C
:1007A000DF93EC01888D8823C9F0EA89FB89808179
:1007B00085FD05C0A889B9898C9186FD0FC00FB64B
:1007C00007FCF5CF808185FFF2CFA889B9898C918C
:1007D00085FFEDCFCE010E946003E7CFDF91CF917F
:1007E000089580E090E0892B29F00E945603811142
:1007F0000C94000008958F929F92AF92BF92CF9277
:10080000DF92EF92FF92CF936B017C0120E030E00A
:1008100040E85FE30E946F0A87FD12C020E030ECE1
:100820004AE555E4C701B6010E94C70B181674F4D7
:10083000C12C30ECD32E3AE5E32E35E4F32E06C07E
:10084000C12CD12C20E8E22E2FE3F22E6091C902B8
:100850007091CA028091CB029091CC020E94150B3C
:100860004B015C0120E030E040E855E4C701B601EF
:100870000E94CC0B9B01AC01C501B4010E94740A1B
:1008800020E030E040E05FE30E94030A20E030E037
:1008900040E85FE30E94020A6B017C0120E030E047
:1008A00040E450E40E946F0A87FD11C020E030E070
:1008B0004FE753E4C701B6010E94C70B181664F452
:1008C000C12CD12C9FE7E92E93E4F92E05C0C12C51
:1008D000D12C80E4E82EFE2CC701B6010E94E60A66
:1008E000F62E8091C60291E09093F90180931B024D
:1008F0001092FA0110921C028091C7029091C802D6
:10090000DC01ED91FC910190F081E02D60E0099512
:1009100081E00E9482008091C6029091F8019111BD
:10092000FCCF91E09093F8019093F7012FEF209383
:10093000F6011092F5011092F4019093D301909179
:10094000D301880F892B8093D3018091D20181300C
:1009500061F41092D2018091D3018093BB00809109
:10096000BC0083FDF8CF85EC01C085EE8093BC0010
:100970008091F8018130E1F38091F501811103C08C
:100980009091F50101C091E0A4EDB1E0E2EBF1E05E
:1009900080E0891721F02D9121938F5FFACF10927B
:1009A000B1018093B0018091C7029091C802DC012F
:1009B000ED91FC910284F385E02D0995C82F682FF5
:1009C0006F76606180E00E94DE006F2D8EEF0E94E6
:1009D000DE006C2F80E00E94DE0065E070E080E0C9
:1009E00090E00E94B1026C2F606A80E0CF91FF908E
:1009F000EF90DF90CF90BF90AF909F908F900C942E
:100A0000DE000E94390C1F920F920FB60F92112434
:100A10002F933F934F935F936F937F938F939F9306
:100A2000AF93BF93EF93FF938091B900887F803697
:100A300009F49CC068F5883209F45BC090F48031F9
:100A400009F454C038F4882309F4F6C0883009F456
:100A50004DC0F6C0883109F44CC0803209F45DC045
:100A6000EFC0803409F468C048F4803309F455C0FD
:100A7000883309F0E5C08093F601D8C0803509F4C9
:100A80004FC0883509F45DC0883409F0D9C0D6C09C
:100A9000883909F4C7C0A8F4883709F467C038F466
:100AA000883609F463C0803709F460C0C9C088384B
:100AB00009F4B8C0803909F45FC0803809F0C0C0BB
:100AC0005BC0803B09F486C038F4803A09F466C004
:100AD000883A09F47FC0B4C0803C09F4A7C0883CC0
:100AE00009F4A4C0883B09F48AC0AAC08091D3014C
:100AF00010C09091F5018091F401981770F5E09184
:100B0000F50181E08E0F8093F501F0E0EC52FE4F8D
:100B100080818093BB0085EC86C08093F6018EC0F7
:100B2000E091F50181E08E0F8093F5018091BB008B
:100B3000F0E0EC52FE4F80839091F5018091F4013A
:100B40006EC0E091F50181E08E0F8093F5018091F8
:100B5000BB00F0E0EC52FE4F80838091F7018111E1
:100B60006DC081E08093D20184EA61C083E080930C
:100B7000F8011092AF01CFCF8091AF01803208F021
:100B800051C0E091AF0181E08E0F8093AF01809161
:100B9000BB00F0E0E157FE4F8083BDCF85EC809332
:100BA000BC001092F8018091AF01803230F4E091E6
:100BB000AF01F0E0E157FE4F10826091AF0170E0AD
:100BC000E0918D01F0918E018FE891E009951092EE
:100BD000AF0136C084E08093F80110928C0110922E
:100BE0008B01E0918901F0918A01099580918B0137
:100BF000811105C081E080938B0110926901E09121
:100C00008C0181E08E0F80938C01F0E0E759FE4F5C
:100C100080818093BB0090918C0180918B0198170B
:100C200008F479CF85E88093BC000AC085EC8093F6
:100C3000BC001092F80104C01092F6010E94D0018D
:100C4000FF91EF91BF91AF919F918F917F916F91A4
:100C50005F914F913F912F910F900FBE0F901F907A
:100C600018951F920F920FB60F9211242F933F9356
:100C70008F939F93AF93BF93809161019091620195
:100C8000A0916301B09164013091600123E0230FD2
:100C90002D3720F40196A11DB11D05C026E8230FB4
:100CA0000296A11DB11D2093600180936101909374
:100CB0006201A0936301B0936401809165019091FA
:100CC0006601A0916701B09168010196A11DB11D57
:100CD0008093650190936601A0936701B0936801CA
:100CE000BF91AF919F918F913F912F910F900FBE28
:100CF0000F901F9018951F920F920FB60F9211240C
:100D00002F933F934F935F936F937F938F939F9313
:100D1000AF93BF93EF93FF938DE192E00E94600346
:100D2000FF91EF91BF91AF919F918F917F916F91C3
:100D30005F914F913F912F910F900FBE0F901F9099
:100D400018951F920F920FB60F9211242F938F9325
:100D50009F93EF93FF93E0912D02F0912E028081FB
:100D6000E0913302F091340282FD12C090818091B3
:100D700036028F5F8F7320913702821751F0E09116
:100D80003602F0E0E35EFD4F958F8093360201C09E
:100D90008081FF91EF919F918F912F910F900FBEC6
:100DA0000F901F901895CF93DF93CAEBD2E01B8270
:100DB0001A8288EE93E0A0E0B0E08C839D83AE833E
:100DC000BF8324E031E039832883EDE1F2E0138230
:100DD000128284839583A683B78386E191E0918311
:100DE000808385EC90E09587848784EC90E09787FA
:100DF000868780EC90E0918B808B81EC90E0938BE8
:100E0000828B82EC90E0958B848B86EC90E0978BC4
:100E1000868B118E128E138E148E85E0EBE5F1E039
:100E2000AAEFB2E001900D928A95E1F785E0E6E540
:100E3000F1E0AFEFB2E001900D928A95E1F785E025
:100E4000E1E5F1E0A4E0B3E001900D928A95E1F7CD
:100E500085E0ECE4F1E0ABEEB2E001900D928A9512
:100E6000E1F785E0E7E4F1E0A0EFB2E001900D9258
:100E70008A95E1F785E0E2E4F1E0A5EFB2E00190C8
:100E80000D928A95E1F785E0EDE3F1E0ACEDB2E09B
:100E900001900D928A95E1F785E0E8E3F1E0A1EE9B
:100EA000B2E001900D928A95E1F785E0E3E3F1E08D
:100EB000A6EEB2E001900D928A95E1F785E0EEE2B0
:100EC000F1E0ADECB2E001900D928A95E1F785E09A
:100ED000E9E2F1E0A2EDB2E001900D928A95E1F72E
:100EE00085E0E4E2F1E0A7EDB2E001900D928A9591
:100EF000E1F7E6ECF2E080E48083D283C18385E011
:100F0000EBE5F1E0AEEAB3E001900D928A95E1F7EE
:100F100085E0E6E5F1E0A3EBB3E001900D928A9560
:100F2000E1F785E0E1E5F1E0A8EBB3E001900D9297
:100F30008A95E1F785E0ECE4F1E0AFE9B3E00190F8
:100F40000D928A95E1F785E0E7E4F1E0A4EAB3E0E9
:100F500001900D928A95E1F785E0E2E4F1E0A9EADB
:100F6000B3E001900D928A95E1F785E0EDE3F1E0C1
:100F7000A0E9B3E001900D928A95E1F785E0E8E3FE
:100F8000F1E0A5E9B3E001900D928A95E1F785E0E3
:100F9000E3E3F1E0AAE9B3E001900D928A95E1F76D
:100FA00085E0EEE2F1E0A1E8B3E001900D928A95D0
:100FB000E1F785E0E9E2F1E0A6E8B3E001900D9207
:100FC0008A95E1F785E0E4E2F1E0ABE8B3E0019077
:100FD0000D928A95E1F78FE0EEEAF3E0A5E4B3E045
:100FE00001900D928A95E1F78FE0EFE9F3E0A4E537
:100FF000B3E001900D928A95E1F78FE0E0E9F3E02C
:10100000A3E6B3E001900D928A95E1F78FE0E1E865
:10101000F3E0A2E7B3E001900D928A95E1F78CE34B
:10102000E5E4F3E0A9E0B3E001900D928A95E1F7E1
:10103000DF91CF910895789484B5826084BD84B5A2
:10104000816084BD85B5826085BD85B5816085BDC3
:1010500080916E00816080936E001092810080917B
:101060008100826080938100809181008160809303
:101070008100809180008160809380008091B10028
:1010800084608093B1008091B00081608093B00053
:1010900080917A00846080937A0080917A008260E7
:1010A00080937A0080917A00816080937A008091A9
:1010B0007A00806880937A001092C100E0912D023E
:1010C000F0912E0282E08083E0912902F0912A02C1
:1010D0001082E0912B02F0912C028FEC8083109211
:1010E0003502E0913102F091320286E08083E09196
:1010F0002F02F0913002808180618083E0912F0285
:10110000F0913002808188608083E0912F02F0911D
:101110003002808180688083E0912F02F09130025C
:1011200080818F7D80831092B1011092B001109266
:10113000FA0110921C021092F80181E08093F701ED
:101140001092D20182E10E94090183E10E9409010B
:101150008091B9008E7F8093B9008091B9008D7F16
:101160008093B90088E48093B80085E48093BC0044
:1011700082E092E090938A018093890183E092E07B
:1011800090938E0180938D0160E880E00E94DE00E4
:101190006AE070E080E090E00E94B10260E070E000
:1011A0008AE794E40E94FB0380E498E7ADE7B1E0AE
:1011B0008093C9029093CA02A093CB02B093CC0251
:1011C00060E070E080E792E40E94FB0300E010E042
:1011D0003FE0F32EF09EE001F19ED00D1124FE01C0
:1011E000EB5BFC4F2AE530E04081518162817381E5
:1011F00084810E945601FE01E65BFC4F26E930E047
:10120000408151816281738184810E945601FE0177
:10121000E15BFC4F24EB30E04081518162817381BE
:1012200084810E9456010F5F1F4F0430110591F613
:1012300068E873E180E090E00E94B10200E010E015
:101240002FE0F22EF09EE001F19ED00D1124FE0160
:10125000E65BFC4F2AE530E0408151816281738179
:1012600084810E945601FE01E15BFC4F24EB30E0DB
:10127000408151816281738184810E9456010F5F98
:101280001F4F04301105F1F660ED77E080E090E04B
:101290000E94B10200E010E09FE0F92EF09EE00114
:1012A000F19ED00D1124FE01E65BFC4F2DE230E0F3
:1012B000408151816281738184810E945601FE01C7
:1012C000E15BFC4F27E830E040815181628173810E
:1012D00084810E9456010F5F1F4F04301105F1F603
:1012E00068EB7BE080E090E00E94B1028FE0F82E96
:1012F00000E010E0F09EE001F19ED00D1124CB5BE8
:10130000DC4F2DE230E0488159816A817B818C81FC
:101310000E94560164E670E080E090E00E94B10215
:101320002AE530E0488159816A817B818C810E9465
:10133000560164E670E080E090E00E94B1020F5F29
:101340001F4F04301105A1F2D5CF052E97FB1EF4D7
:1013500000940E94BC0957FD07D00E94C40907FCF5
:1013600003D04EF40C94BC095095409530952195CE
:101370003F4F4F4F5F4F08959095809570956195C1
:101380007F4F8F4F9F4F0895A1E21A2EAA1BBB1BC0
:10139000FD010DC0AA1FBB1FEE1FFF1FA217B30741
:1013A000E407F50720F0A21BB30BE40BF50B661F57
:1013B000771F881F991F1A9469F76095709580951B
:1013C00090959B01AC01BD01CF010895A29FB00192
:1013D000B39FC001A39F700D811D1124911DB29F69
:1013E000700D811D1124911D08950E94E609B7FF1B
:1013F0000895821B930B0895EE0FFF1F0590F49143
:10140000E02D09945058BB27AA270E941A0A0C9471
:101410008D0B0E947F0B38F00E94860B20F039F470
:101420009F3F19F426F40C947C0B0EF4E095E7FB37
:101430000C94760BE92F0E949E0B58F3BA176207A3
:1014400073078407950720F079F4A6F50C94C00B78
:101450000EF4E0950B2EBA2FA02D0B01B9019001CF
:101460000C01CA01A0011124FF27591B99F0593F13
:1014700050F4503E68F11A16F040A22F232F342F5B
:101480004427585FF3CF469537952795A795F040A9
:101490005395C9F77EF41F16BA0B620B730B840BBE
:1014A000BAF09150A1F0FF0FBB1F661F771F881F76
:1014B000C2F70EC0BA0F621F731F841F48F48795CE
:1014C00077956795B795F7959E3F08F0B0CF9395C0
:1014D000880F08F09927EE0F9795879508950E9439
:1014E000520B08F481E008950E94880A0C948D0B39
:1014F0000E94860B58F00E947F0B40F029F45F3F5A
:1015000029F00C94760B51110C94C10B0C947C0BAC
:101510000E949E0B68F39923B1F3552391F3951B19
:10152000550BBB27AA2762177307840738F09F5F04
:101530005F4F220F331F441FAA1FA9F335D00E2E71
:101540003AF0E0E832D091505040E695001CCAF7DE
:101550002BD0FE2F29D0660F771F881FBB1F2617A1
:1015600037074807AB07B0E809F0BB0B802DBF0178
:10157000FF2793585F4F3AF09E3F510578F00C9447
:10158000760B0C94C10B5F3FE4F3983ED4F3869541
:1015900077956795B795F7959F5FC9F7880F911D68
:1015A0009695879597F90895E1E0660F771F881F54
:1015B000BB1F621773078407BA0720F0621B730B07
:1015C000840BBA0BEE1F88F7E09508950E94A60BD6
:1015D00088F09F5798F0B92F9927B751B0F0E1F0F4
:1015E000660F771F881F991F1AF0BA95C9F714C0A4
:1015F000B13091F00E94C00BB1E008950C94C00B83
:10160000672F782F8827B85F39F0B93FCCF38695DC
:1016100077956795B395D9F73EF490958095709539
:1016200061957F4F8F4F9F4F0895E89409C097FBB6
:101630003EF490958095709561957F4F8F4F9F4FA9
:101640009923A9F0F92F96E9BB279395F6958795ED
:1016500077956795B795F111F8CFFAF4BB0F11F4B0
:1016600060FF1BC06F5F7F4F8F4F9F4F16C0882357
:1016700011F096E911C0772321F09EE8872F762F8D
:1016800005C0662371F096E8862F70E060E02AF0CE
:101690009A95660F771F881FDAF7880F96958795BA
:1016A00097F90895990F0008550FAA0BE0E8FEEF8F
:1016B00016161706E807F907C0F012161306E40716
:1016C000F50798F0621B730B840B950B39F40A260F
:1016D00061F0232B242B252B21F408950A2609F4ED
:1016E000A140A6958FEF811D811D089597F99F67F1
:1016F00080E870E060E008959FEF80EC089500249A
:101700000A941616170618060906089500240A9466
:1017100012161306140605060895092E0394000CEC
:1017200011F4882352F0BB0F40F4BF2B11F460FF7B
:1017300004C06F5F7F4F8F4F9F4F089557FD9058A4
:10174000440F551F59F05F3F71F04795880F97FB85
:10175000991F61F09F3F79F087950895121613063F
:101760001406551FF2CF4695F1DF08C0161617066E
:101770001806991FF1CF86957105610508940895A3
:10178000E894BB2766277727CB0197F908950E9435
:10179000520B08F48FEF08950E94DF0B0C948D0B11
:1017A0000E947F0B38F00E94860B20F0952311F0E9
:1017B0000C94760B0C947C0B11240C94C10B0E949E
:1017C0009E0B70F3959FC1F3950F50E0551F629FDC
:1017D000F001729FBB27F00DB11D639FAA27F00D8A
:1017E000B11DAA1F649F6627B00DA11D661F829FB1
:1017F0002227B00DA11D621F739FB00DA11D621F96
:10180000839FA00D611D221F749F3327A00D611DB2
:10181000231F849F600D211D822F762F6A2F112494
:101820009F5750409AF0F1F088234AF0EE0FFF1FC7
:10183000BB1F661F771F881F91505040A9F79E3F1E
:10184000510580F00C94760B0C94C10B5F3FE4F3D0
:10185000983ED4F3869577956795B795F795E79574
:101860009F5FC1F7FE2B880F911D9695879597F97D
:10187000089581E090E0F8940C943E0CF894FFCF2A
:10188000000000005D023002160304022802140268
:101890000502000000008203EB021903CF034A0394
:1018A00028033C030B0000000007000F00000300AA
:1018B0000000000A00F8FF010600F6FF0102000028
:1018C00000000900EEFF0005001400000100000008
:1018D000000800ECFF010400ECFF01000000000024
:00000001FF
