:100000000C946C000C9494000C9494000C94940048
:100010000C9494000C9494000C9494000C94940010
:100020000C9494000C9494000C9494000C94940000
:100030000C9494000C9494000C9494000C949400F0
:100040000C9468050C9494000C94D8050C94B2059B
:100050000C9494000C9494000C9494000C949400D0
:100060000C943A040C949400072C7AA5BA6CC590B1
:10007000DA3B9365FC8BBC53F810FD3C5692834DE4
:10008000BD879D3AB63DCBC9BF5BBE73DA0FC93F92
:1000900000000000250028002B00040404040404D0
:1000A0000404020202020202030303030303010227
:1000B00004081020408001020408102001020408F6
:1000C00010200000000800020100000304070000E7
:1000D000000000000000B50911241FBECFEFD8E0DA
:1000E000DEBFCDBF11E0A0E0B1E0E4ECFDE102C075
:1000F00005900D92A036B107D9F724E0A0E6B1E053
:1001000001C01D92A533B207E1F710E0CCE6D0E0C4
:1001100004C02197FE010E94080DCB36D107C9F714
:100120000E94F6070C94E00E0C94000090E0FC0195
:10013000EE53FF4F2491FC01E255FF4F3491FC0137
:10014000E656FF4FE491EE23B1F1222339F123303B
:1001500091F038F42130A9F0223001F584B58F7D7B
:1001600012C0273091F02830A1F02430B9F48091EA
:1001700080008F7D03C0809180008F778093800006
:100180000DC084B58F7784BD09C08091B0008F7792
:1001900003C08091B0008F7D8093B000F0E0EE0F3F
:1001A000FF1FE057FF4FA591B4918FB7F894EC91E2
:1001B000E32BEC938FBF089585ED8093BC00809175
:1001C000BC0084FDFCCF1092F801089540918B0192
:1001D000262F30E0240F311D21323105DCF420912F
:1001E000F8012430C9F4FC0180E090E0861758F44F
:1001F00030918B012191DC01A759BE4FA30FB11D96
:100200002C930196F3CF80918B01680F60938B0143
:1002100080E0089581E0089582E0089508950895AA
:100220000895E091B1018091B001E81730F4F0E059
:10023000EE54FE4F808190E008958FEF9FEF089578
:100240009091B1018091B001981750F4E92FF0E03E
:10025000EE54FE4F208130E09F5F9093B10102C0C9
:100260002FEF3FEFC90108958091B00190E02091F8
:10027000B101821B91090895CF92DF92EF92FF9214
:100280000F931F93CF93DF937C01CB018A012091C1
:10029000F901222389F0EB016B01C40ED51ECC15A8
:1002A000DD0569F06991D701ED91FC910190F08134
:1002B000E02DC7010995F3CF642F0E94E600C80125
:1002C000DF91CF911F910F91FF90EF90DF90CF9032
:1002D0000895CF93DF931F92CDB7DEB76983209146
:1002E000F9012223D1F020911C02203240F021E0BC
:1002F00030E0FC013383228380E090E015C08091E0
:10030000FA01E82FF0E0E550FE4F998190838F5F6E
:100310008093FA0180931C0205C061E0CE01019632
:100320000E94E60081E090E00F90DF91CF91089568
:100330003FB7F8948091650190916601A0916701A3
:10034000B091680126B5A89B05C02F3F19F0019612
:10035000A11DB11D3FBFBA2FA92F982F8827820F4B
:10036000911DA11DB11DBC01CD0142E0660F771F9B
:10037000881F991F4A95D1F708958F929F92AF9247
:10038000BF92CF92DF92EF92FF926B017C010E94AD
:1003900098014B015C01C114D104E104F104F1F0B6
:1003A0000E949801DC01CB0188199909AA09BB09AF
:1003B000883E9340A105B10570F321E0C21AD1082F
:1003C000E108F10888EE880E83E0981EA11CB11C9C
:1003D000C114D104E104F10419F7DDCFFF90EF90CF
:1003E000DF90CF90BF90AF909F908F900895CF9265
:1003F000DF92EF92FF920F931F93CF93DF936C01E5
:100400007A018B01C0E0D0E0CE15DF0581F0D80184
:100410006D918D01D601ED91FC910190F081E02D5F
:10042000C6010995892B11F02196EECF7E01C701F7
:10043000DF91CF911F910F91FF90EF90DF90CF90C0
:100440000895089580E090E00895FC01538D448D57
:10045000252F30E0842F90E0821B930B541710F06F
:10046000CF96089501970895FC01918D828D98177C
:1004700061F0828DDF01A80FB11D5D968C91928D88
:100480009F5F9F73928F90E008958FEF9FEF089585
:10049000FC01918D828D981731F0828DE80FF11D4E
:1004A000858D90E008958FEF9FEF0895FC01918D69
:1004B000228D892F90E0805C9F4F821B91098F7362
:1004C000992708958DE192E00E94560221E0892B40
:1004D00009F420E0822F0895FC01848DDF01A80F2C
:1004E000B11DA35ABF4F2C91848D90E001968F735C
:1004F0009927848FA689B7892C93A089B1898C917B
:10050000837080648C93938D848D981306C00288C9
:10051000F389E02D80818F7D80830895EF92FF9293
:100520000F931F93CF93DF93EC0181E0888F9B8D16
:100530008C8D981305C0E889F989808185FD26C0D6
:10054000F62E0B8D10E00F5F1F4F0F731127E02E5B
:100550008C8DE8120CC00FB607FCFACFE889F98938
:10056000808185FFF5CFCE010E946C02F1CF8B8D8B
:10057000FE01E80FF11DE35AFF4FF0829FB7F89498
:100580000B8FEA89FB89808180620AC09FB7F8944B
:10059000EE89FF896083E889F989808183708064AE
:1005A00080839FBF81E090E0DF91CF911F910F91F9
:1005B000FF90EF900895CF93DF93EC01888D88230F
:1005C000C9F0EA89FB89808185FD05C0A889B989C0
:1005D0008C9186FD0FC00FB607FCF5CF808185FF9B
:1005E000F2CFA889B9898C9185FFEDCFCE010E9409
:1005F0006C02E7CFDF91CF91089580E090E0892BE6
:1006000029F00E94620281110C94000008951F934A
:10061000CF93DF93162FCAEBD2E0988121E020938D
:10062000F90190931B021092FA0110921C02A98109
:10063000BA81ED91FC9111970190F081E02D682F26
:10064000CD01099589819A81DC01ED91FC910190A0
:10065000F081E02D612F099581E0DF91CF911F910D
:100660000C9411068F929F92AF92BF92CF92DF921D
:10067000EF92FF92CF936B017C0120E030E040E8E5
:100680005FE30E948D0B87FD12C020E030EC4AE54D
:1006900055E4C701B6010E947B0E181674F4C12CF4
:1006A00030ECD32E3AE5E32E35E4F32E06C0C12C10
:1006B000D12C20E8E22E2FE3F22E6091BD02709142
:1006C000BE028091BF029091C0020E94920B4B012A
:1006D0005C0120E030E040E855E4C701B6010E942B
:1006E000F30B9B01AC01C501B4010E948C0D20E00D
:1006F00030E040E05FE30E94200D20E030E040E881
:100700005FE30E941F0D6B017C0120E030E040E4BC
:1007100050E40E948D0B87FD11C020E030E04FE7D0
:1007200053E4C701B6010E947B0E181664F4C12C75
:10073000D12C9FE7E92E93E4F92E05C0C12CD12CD2
:1007400080E4E82EFE2CC701B6010E94050EF62EAD
:100750008091BA0291E09093F90180931B0210926C
:10076000FA0110921C028091BB029091BC02DC0144
:10077000ED91FC910190F081E02D60E0099581E020
:100780000E9411068091BA029091F8019111FCCF5C
:1007900091E09093F8019093F7012FEF2093F601E9
:1007A0001092F5011092F4019093D3019091D3012E
:1007B000880F892B8093D3018091D201813061F41D
:1007C0001092D2018091D3018093BB008091BC0034
:1007D00083FDF8CF85EC01C085EE8093BC0080914D
:1007E000F8018130E1F38091F501811103C090910E
:1007F000F50101C091E0A4EDB1E0E2EBF1E080E0B1
:10080000891721F02D9121938F5FFACF1092B101BA
:100810008093B0018091BB029091BC02DC01ED910C
:10082000FC910284F385E02D0995C82F682F6F761F
:10083000606180E00E9407036F2D8EEF0E94070326
:100840006C2F80E00E94070365E070E080E090E09C
:100850000E94BD016C2F606A80E0CF91FF90EF9005
:10086000DF90CF90BF90AF909F908F900C94070334
:100870000E94DB0E1F920F920FB60F9211242F933E
:100880003F934F935F936F937F938F939F93AF9318
:10089000BF93EF93FF938091B900887F803609F46E
:1008A0009CC068F5883209F45BC090F4803109F48B
:1008B00054C038F4882309F4F6C0883009F44DC0D8
:1008C000F6C0883109F44CC0803209F45DC0EFC035
:1008D000803409F468C048F4803309F455C0883383
:1008E00009F0E5C08093F601D8C0803509F44FC007
:1008F000883509F45DC0883409F0D9C0D6C088397C
:1009000009F4C7C0A8F4883709F467C038F48836FA
:1009100009F463C0803709F460C0C9C0883809F49D
:10092000B8C0803909F45FC0803809F0C0C05BC02E
:10093000803B09F486C038F4803A09F466C0883AEE
:1009400009F47FC0B4C0803C09F4A7C0883C09F416
:10095000A4C0883B09F48AC0AAC08091D30110C00A
:100960009091F5018091F401981770F5E091F501EF
:1009700081E08E0F8093F501F0E0EC52FE4F808114
:100980008093BB0085EC86C08093F6018EC0E09119
:10099000F50181E08E0F8093F5018091BB00F0E0BE
:1009A000EC52FE4F80839091F5018091F4016EC06E
:1009B000E091F50181E08E0F8093F5018091BB00FD
:1009C000F0E0EC52FE4F80838091F70181116DC001
:1009D00081E08093D20184EA61C083E08093F801D2
:1009E0001092AF01CFCF8091AF01803208F051C09B
:1009F000E091AF0181E08E0F8093AF018091BB0049
:100A0000F0E0E157FE4F8083BDCF85EC8093BC00C2
:100A10001092F8018091AF01803230F4E091AF0183
:100A2000F0E0E157FE4F10826091AF0170E0E0917D
:100A30008D01F0918E018FE891E009951092AF0140
:100A400036C084E08093F80110928C0110928B01E3
:100A5000E0918901F0918A01099580918B018111C2
:100A600005C081E080938B0110926901E0918C01B7
:100A700081E08E0F80938C01F0E0E759FE4F80817A
:100A80008093BB0090918C0180918B01981708F4A2
:100A900079CF85E88093BC000AC085EC8093BC00C8
:100AA0001092F80104C01092F6010E94DC00FF9140
:100AB000EF91BF91AF919F918F917F916F915F91D6
:100AC0004F913F912F910F900FBE0F901F9018954F
:100AD0001F920F920FB60F9211242F933F938F9373
:100AE0009F93AF93BF938091610190916201A09118
:100AF0006301B09164013091600123E0230F2D3731
:100B000020F40196A11DB11D05C026E8230F029611
:100B1000A11DB11D2093600180936101909362013A
:100B2000A0936301B0936401809165019091660187
:100B3000A0916701B09168010196A11DB11D80933C
:100B4000650190936601A0936701B0936801BF911E
:100B5000AF919F918F913F912F910F900FBE0F906A
:100B60001F9018951F920F920FB60F9211242F937A
:100B70003F934F935F936F937F938F939F93AF9325
:100B8000BF93EF93FF938DE192E00E946C02FF917F
:100B9000EF91BF91AF919F918F917F916F915F91F5
:100BA0004F913F912F910F900FBE0F901F9018956E
:100BB0001F920F920FB60F9211242F938F939F9332
:100BC000EF93FF93E0912D02F0912E028081E0914E
:100BD0003302F091340282FD12C09081809136027E
:100BE0008F5F8F7320913702821751F0E0913602A8
:100BF000F0E0E35EFD4F958F8093360201C0808167
:100C0000FF91EF919F918F912F910F900FBE0F90B9
:100C10001F901895DC01ED91FC910190F081E02D81
:100C20000994282F30911C02313208F04AC080917B
:100C3000F8018111FCCF90911B0242E04093F80132
:100C40002093F7012FEF2093F6011092F5013093D6
:100C5000F401EBEFF1E0A4EDB1E020E0321721F078
:100C600041914D932F5FFACF1092D3012091D30180
:100C7000990F922B9093D3019091D201913061F40E
:100C80001092D2019091D3019093BB009091BC003F
:100C900093FDF8CF95EC01C095EE9093BC00909138
:100CA000F8019230E1F39091F6019F3F79F0809145
:100CB000F601803241F08091F601803331F084E01A
:100CC00005C081E003C082E001C083E01092FA0118
:100CD00010921C021092F9010895CF92DF92EF92C8
:100CE000FF92CF93DF9300D000D01F92CDB7DEB735
:100CF00049835A836B837C838D83AB81BC81811153
:100D000003C0A20FB31F04C0A21BB30BAC54BF4F50
:100D100028E631E00E94010D24EB30E040E050E095
:100D20000E94B10C69017A018CE8C80ED11CE11C4B
:100D3000F11C69817A818091BA0291E09093F90166
:100D400080931B021092FA0110921C028091BB0248
:100D50009091BC027727660F771F660F771F6A5F37
:100D60007F4FDC01ED91FC910190F081E02D099520
:100D700060E070E08091BB029091BC020E940A0684
:100D800060E070E08091BB029091BC020E940A0674
:100D9000B6018091BB029091BC020E940A066D2DA3
:100DA00070E08091BB029091BC020E940A0681E033
:100DB0000F900F900F900F900F90DF91CF91FF90B9
:100DC000EF90DF90CF900C9411062F923F924F92AC
:100DD0005F926F927F928F929F92AF92BF92CF92CB
:100DE000DF92EF92FF920F931F93CF93DF93CDB7D4
:100DF000DEB7A2970FB6F894DEBF0FBECDBFA88AAC
:100E0000B98ACA8ADB8AEC8AFD8A0E8B1F8B288FEF
:100E1000398F4A8F5B8F6C8F7D8F8E8F8FA898ACA8
:100E2000A9ACBAACA5019401C501B4010E94F30BB1
:100E300020E030E048EC51E40E94200D0E94860E34
:100E40006B017C019B01AC01C501B4010E948C0DBA
:100E50000E940E0D6F8F78A389A39AA3A701960114
:100E6000C701B6010E94F30B4B015C019B01AC0171
:100E700060E070E088EC92E40E941F0D2AE23CE5FD
:100E800043E752E40E941F0D2B013C0120E030E0BB
:100E900040E050ECC701B6010E94F30B2AE939E9A2
:100EA00049EF50E40E94F30B9B01AC01C301B20176
:100EB0000E948C0D0E940E0D9B01AC016F8D78A1DC
:100EC00089A19AA10E94200D20EE3EE245E652E45F
:100ED0000E94F30B0E94FE0D6B017C01072E000C9B
:100EE000880B990B0E94940B2B013C012AE037EDF3
:100EF00040E253E4C501B4010E941F0D20E030E040
:100F00004CE153EC0E948C0D0E940E0D20EE3EE24F
:100F100045E652E40E94F30B0E94FE0D072E000CE2
:100F2000880B990B0E94940B9B01AC0160E070E070
:100F300084E393E40E941F0D20E030E0A9010E94A9
:100F4000200D0E94FE0D6F8F78A389A39AA320E045
:100F500030E0A901C301B2010E947B0E181654F4BF
:100F600020E030E044E353E4C301B2010E948D0B62
:100F700087FD16018FE0FE017096DE01119601904B
:100F80000D928A95E1F72AE530E049815A816B811B
:100F90007C818D810E946D0691014E815F81688503
:100FA00079858A850E946D062F8D38A14B855C85D9
:100FB0006D857E858F850E946D06A2960FB6F8948A
:100FC000DEBF0FBECDBFDF91CF911F910F91FF907C
:100FD000EF90DF90CF90BF90AF909F908F907F90D9
:100FE0006F905F904F903F902F900895789484B5C4
:100FF000826084BD84B5816084BD85B5826085BD15
:1010000085B5816085BD80916E00816080936E00A2
:101010001092810080918100826080938100809194
:101020008100816080938100809180008160809345
:1010300080008091B10084608093B1008091B00005
:1010400081608093B00080917A00846080937A0000
:1010500080917A00826080937A0080917A0081602A
:1010600080937A0080917A00806880937A00109251
:10107000C100E0912D02F0912E0282E08083E09188
:101080002902F0912A021082E0912B02F0912C02A9
:101090008FEC808310923502E0913102F0913202A0
:1010A00086E08083E0912F02F091300280818061A0
:1010B0008083E0912F02F0913002808188608083EC
:1010C000E0912F02F0913002808180688083E0916E
:1010D0002F02F091300280818F7D80831092B101C8
:1010E0001092B0011092FA0110921C021092F801B5
:1010F00081E08093F7011092D20182E10E94960074
:1011000083E10E9496008091B9008E7F8093B900A0
:101110008091B9008D7F8093B90088E48093B800F6
:1011200085E48093BC008EE091E090938A018093E7
:1011300089018FE091E090938E0180938D0160E8AA
:1011400080E00E9407036AE070E080E090E00E9487
:10115000BD0160E070E08AE794E40E94320380E41D
:1011600098E7ADE7B1E08093BD029093BE02A093F3
:10117000BF02B093C00260E070E080E792E40E949A
:101180003203C0E0D0E02FE0722E30E4832E40E83E
:10119000942E7C9EF0017D9EF00D1124EF53FD4FA7
:1011A0008F929F921F921F92A080B180C280D380A5
:1011B000E480F5800681178120853185428553853D
:1011C0006485758586850E94E50621960F900F90AF
:1011D0000F900F90C430D105E1F668EB7BE080E022
:1011E00090E00E94BD018FE0782E90E8292EC0E0AB
:1011F000D0E07C9EF0017D9EF00D1124EF53FD4F59
:1012000080E48F932F921F921F92A080B180C280A2
:10121000D380E480F5800681178120853185428561
:1012200053856485758586850E94E50621960F9015
:101230000F900F900F90C430D105D9F668EC70E094
:1012400080E090E00E94BD01C0E9D1E0BE010D2E1A
:10125000000C880B990B0E94940B20E030E048ECC6
:1012600052E40E948C0D362E672E582E492E812C6A
:10127000912C789CF001799CF00D1124EF53FD4FD7
:101280004F925F926F923F92A080B180C280D380D4
:10129000E480F5800681178120853185428553855C
:1012A0006485758586850E94E5068FEF881A980A01
:1012B0000F900F900F900F9084E088169104C9F65C
:1012C0002A96CC3D85E0D80709F668EE73E080E009
:1012D00090E00E94BD01CCEDD5E0BE010D2E000CCA
:1012E000880B990B0E94940B20E030E048EC52E40C
:1012F0000E948C0D362E672E582E492E812C912C53
:10130000789CF001799CF00D1124EF53FD4F4F9222
:101310005F926F923F92A080B180C280D380E480C0
:10132000F580068117812085318542855385648546
:10133000758586850E94E5068FEF881A980A0F90BA
:101340000F900F900F9084E088169104C9F62A97A9
:10135000CE3581E0D80709F668EE73E080E090E0D2
:101360000E94BD010E94FD0242CFCF93DF93C9E3EB
:10137000D3E01B821A8288EE93E0A0E0B0E08C8379
:101380009D83AE83BF8324E031E039832883EDE180
:10139000F2E01382128284839583A683B78386E169
:1013A00091E09183808385EC90E09587848784EC3D
:1013B00090E09787868780EC90E0918B808B81EC22
:1013C00090E0938B828B82EC90E0958B848B86EC03
:1013D00090E0978B868B118E128E138E148E85E083
:1013E000EBE5F1E0A2E7B3E001900D928A95E1F719
:1013F00085E0E6E5F1E0A7E7B3E001900D928A957C
:10140000E1F785E0E1E5F1E0ACE7B3E001900D92B2
:101410008A95E1F785E0ECE4F1E0A3E6B3E0019022
:101420000D928A95E1F785E0E7E4F1E0A8E6B3E004
:1014300001900D928A95E1F785E0E2E4F1E0ADE6F6
:10144000B3E001900D928A95E1F785E0EDE3F1E0DC
:10145000A4E5B3E001900D928A95E1F785E0E8E319
:10146000F1E0A9E5B3E001900D928A95E1F785E0FE
:10147000E3E3F1E0AEE5B3E001900D928A95E1F788
:1014800085E0EEE2F1E0A5E4B3E001900D928A95EB
:10149000E1F785E0E9E2F1E0AAE4B3E001900D9222
:1014A0008A95E1F785E0E4E2F1E0AFE4B3E0019092
:1014B0000D928A95E1F78FE0E2E7F3E0A1ECB2E06C
:1014C00001900D928A95E1F78FE0E3E6F3E0A0ED5D
:1014D000B2E001900D928A95E1F78FE0E4E5F3E048
:1014E000AFEDB2E001900D928A95E1F78FE0E5E46F
:1014F000F3E0AEEEB2E001900D928A95E1F7EAEBEF
:10150000F2E080E48083D283C18385E0EBE5F1E003
:10151000AAEEB3E001900D928A95E1F785E0E6E549
:10152000F1E0AFEEB3E001900D928A95E1F785E02E
:10153000E1E5F1E0A4EFB3E001900D928A95E1F7C7
:1015400085E0ECE4F1E0ABEDB3E001900D928A951B
:10155000E1F785E0E7E4F1E0A0EEB3E001900D9261
:101560008A95E1F785E0E2E4F1E0A5EEB3E00190D1
:101570000D928A95E1F785E0EDE3F1E0ACECB3E0A4
:1015800001900D928A95E1F785E0E8E3F1E0A1EDA5
:10159000B3E001900D928A95E1F785E0E3E3F1E095
:1015A000A6EDB3E001900D928A95E1F785E0EEE2B9
:1015B000F1E0ADEBB3E001900D928A95E1F785E0A3
:1015C000E9E2F1E0A2ECB3E001900D928A95E1F737
:1015D00085E0E4E2F1E0A7ECB3E001900D928A959A
:1015E000E1F78FE0EAEEF3E0A1E8B3E001900D92BD
:1015F0008A95E1F78FE0EBEDF3E0A0E9B3E001902D
:101600000D928A95E1F78FE0ECECF3E0AFE9B3E0FF
:1016100001900D928A95E1F78FE0EDEBF3E0AEEAF1
:10162000B3E001900D928A95E1F78CE3E1E8F3E0F5
:10163000ADEFB2E001900D928A95E1F785E0EBE520
:10164000F1E0A6E2B4E001900D928A95E1F785E021
:10165000E6E5F1E0ABE2B4E001900D928A95E1F7A6
:1016600085E0E1E5F1E0A0E3B4E001900D928A9518
:10167000E1F785E0ECE4F1E0A7E1B4E001900D9240
:101680008A95E1F785E0E7E4F1E0ACE1B4E00190B0
:101690000D928A95E1F785E0E2E4F1E0A1E2B4E0A1
:1016A00001900D928A95E1F785E0EDE3F1E0A8E085
:1016B000B4E001900D928A95E1F785E0E8E3F1E06E
:1016C000ADE0B4E001900D928A95E1F785E0E3E3A7
:1016D000F1E0A2E1B4E001900D928A95E1F785E096
:1016E000EEE2F1E0A9EFB3E001900D928A95E1F707
:1016F00085E0E9E2F1E0AEEFB3E001900D928A956A
:10170000E1F785E0E4E2F1E0A3E0B4E001900D92BE
:101710008A95E1F7DF91CF9108950E94CF0B08F4ED
:1017200081E00895E89409C097FB3EF49095809578
:10173000709561957F4F8F4F9F4F9923A9F0F92F97
:1017400096E9BB279395F695879577956795B79515
:10175000F111F8CFFAF4BB0F11F460FF1BC06F5FFB
:101760007F4F8F4F9F4F16C0882311F096E911C00D
:10177000772321F09EE8872F762F05C0662371F02E
:1017800096E8862F70E060E02AF09A95660F771F42
:10179000881FDAF7880F9695879597F90895990F1E
:1017A0000008550FAA0BE0E8FEEF16161706E8072B
:1017B000F907C0F012161306E407F50798F0621B4C
:1017C000730B840B950B39F40A2661F0232B242B21
:1017D000252B21F408950A2609F4A140A6958FEF40
:1017E000811D811D08950E94060C0C94770C0E94A7
:1017F000690C38F00E94700C20F0952311F00C94C5
:10180000600C0C94660C11240C94AB0C0E94880C98
:1018100070F3959FC1F3950F50E0551F629FF00143
:10182000729FBB27F00DB11D639FAA27F00DB11D5C
:10183000AA1F649F6627B00DA11D661F829F2227E5
:10184000B00DA11D621F739FB00DA11D621F839F6C
:10185000A00D611D221F749F3327A00D611D231F42
:10186000849F600D211D822F762F6A2F11249F5790
:1018700050409AF0F1F088234AF0EE0FFF1FBB1F93
:10188000661F771F881F91505040A9F79E3F510552
:1018900080F00C94600C0C94AB0C5F3FE4F3983E2A
:1018A000D4F3869577956795B795F795E7959F5FFC
:1018B000C1F7FE2B880F911D9695879597F908958E
:1018C00097F99F6780E870E060E008959FEF80ECF3
:1018D000089500240A941616170618060906089596
:1018E00000240A9412161306140605060895092EFC
:1018F0000394000C11F4882352F0BB0F40F4BF2B6B
:1019000011F460FF04C06F5F7F4F8F4F9F4F0895AA
:1019100057FD9058440F551F59F05F3F71F04795A0
:10192000880F97FB991F61F09F3F79F08795089585
:10193000121613061406551FF2CF4695F1DF08C0A4
:10194000161617061806991FF1CF869571056105C1
:1019500008940895E894BB2766277727CB0197F969
:101960000895052E97FB1EF400940E94C80C57FDA5
:1019700007D00E94D00C07FC03D04EF40C94C80C86
:1019800050954095309521953F4F4F4F5F4F0895AB
:1019900090958095709561957F4F8F4F9F4F0895DB
:1019A000A1E21A2EAA1BBB1BFD010DC0AA1FBB1F63
:1019B000EE1FFF1FA217B307E407F50720F0A21BD5
:1019C000B30BE40BF50B661F771F881F991F1A9442
:1019D00069F760957095809590959B01AC01BD016C
:1019E000CF010895A29FB001B39FC001A39F700DC6
:1019F000811D1124911DB29F700D811D1124911D17
:101A000008950E94F20CB7FF0895821B930B08956E
:101A1000EE0FFF1F0590F491E02D09949F939F779F
:101A20000E94340E0F90002042F49058A2EA2AED52
:101A30003FE049E450E40E94370D0C94770C505875
:101A4000BB27AA270E94370D0C94770C0E94690CC3
:101A500038F00E94700C20F039F49F3F19F426F4FE
:101A60000C94660C0EF4E095E7FB0C94600CE92FE7
:101A70000E94880C58F3BA1762077307840795070A
:101A800020F079F4A6F50C94AA0C0EF4E0950B2E38
:101A9000BA2FA02D0B01B90190010C01CA01A001C0
:101AA0001124FF27591B99F0593F50F4503E68F11B
:101AB0001A16F040A22F232F342F4427585FF3CF5C
:101AC000469537952795A795F0405395C9F77EF42D
:101AD0001F16BA0B620B730B840BBAF09150A1F076
:101AE000FF0FBB1F661F771F881FC2F70EC0BA0FFC
:101AF000621F731F841F48F4879577956795B79584
:101B0000F7959E3F08F0B0CF9395880F08F099277E
:101B1000EE0F9795879508950E94A00D0C94770C71
:101B20000E94700C58F00E94690C40F029F45F3F4D
:101B300029F00C94600C51110C94AB0C0C94660CB5
:101B40000E94880C68F39923B1F3552391F3951BF8
:101B5000550BBB27AA2762177307840738F09F5FCE
:101B60005F4F220F331F441FAA1FA9F335D00E2E3B
:101B70003AF0E0E832D091505040E695001CCAF7A8
:101B80002BD0FE2F29D0660F771F881FBB1F26176B
:101B900037074807AB07B0E809F0BB0B802DBF0142
:101BA000FF2793585F4F3AF09E3F510578F00C9411
:101BB000600C0C94AB0C5F3FE4F3983ED4F3869535
:101BC00077956795B795F7959F5FC9F7880F911D32
:101BD0009695879597F90895E1E0660F771F881F1E
:101BE000BB1F621773078407BA0720F0621B730BD1
:101BF000840BBA0BEE1F88F7E09508950E94050E3E
:101C00006894B1110C94AB0C08950E94900C88F06C
:101C10009F5798F0B92F9927B751B0F0E1F0660FB0
:101C2000771F881F991F1AF0BA95C9F714C0B130F1
:101C300091F00E94AA0CB1E008950C94AA0C672FB1
:101C4000782F8827B85F39F0B93FCCF38695779520
:101C50006795B395D9F73EF4909580957095619509
:101C60007F4F8F4F9F4F0895DF93CF931F930F9315
:101C70008B01EC01E8E6F0E00E94540E0E94770C24
:101C80009801AE018B01EC0160E070E080E89FE319
:101C90000E941F0D0E94860E9801AE010F911F91A8
:101CA000CF91DF910C94060CDF93CF931F930F938A
:101CB000FF92EF92DF927B018C01689406C0DA2ECE
:101CC000EF010E94060CFE01E894A5912591359143
:101CD00045915591A6F3EF010E94370DFE01970142
:101CE000A801DA9469F7DF90EF90FF900F911F91B0
:101CF000CF91DF9108950E94CF0B08F48FEF0895E4
:101D000019F416F40C94660C0C94C60E0E94900CF8
:101D1000B8F39923C9F3B6F39F57550B87FF0E9479
:101D2000D40E0024A0E640EA90018058569597957D
:101D300028F4805C660F771F881F20F0261737076E
:101D4000480730F4621B730B840B202931294A2B7E
:101D5000A69517940794202531254A2758F7660F32
:101D6000771F881F20F026173707480730F4620BCB
:101D7000730B840B200D311D411DA09581F7B90116
:101D8000842F9158880F9695879508959F3F31F03D
:101D9000915020F4879577956795B795880F911D99
:101DA0009695879597F9089591505040660F771F43
:101DB000881FD2F7089581E090E0F8940C94E00E2B
:041DC000F894FFCFC5
:101DC4000000000069013C012202100134012001DD
:101DD4001101000000008E02F7012502DB02560209
:101DE400340248020B00070000070007000003004C
:101DF400FDFF000A00FBFF010600F9FF010200F6E7
:101E0400FF010900FBFF0005000500000100FBFFC6
:101E14000008000500010400F6FF010000FBFF01BB
:00000001FF
