:100000000C9483000C94AB000C94AB000C94AB00EC
:100010000C94AB000C94AB000C94AB000C94AB00B4
:100020000C94AB000C94AB000C94AB000C94AB00A4
:100030000C94AB000C94AB000C94AB000C94AB0094
:100040000C9481070C94AB000C94F1070C94CB0733
:100050000C94AB000C94AB000C94AB000C94AB0074
:100060000C9453060C94AB00084AD73B3BCE016E70
:1000700084BCBFFDC12F3D6C74319ABD56833DDAFF
:100080003D00C77F11BED9E4BB4C3E916BAAAABE0E
:10009000000000803F072C7AA5BA6CC590DA3B932C
:1000A00065FC8BBC53F810FD3C5692834DBD879D7B
:1000B0003AB63DCBC9BF5BBE73DA0FC93F00000043
:1000C0000000250028002B00040404040404040498
:1000D00002020202020203030303030301020408F3
:1000E00010204080010204081020010204081020A2
:1000F00000000008000201000003040700000000E7
:1001000000000000230811241FBECFEFD8E0DEBF9F
:10011000CDBF11E0A0E0B1E0E2EBFAE102C0059052
:100120000D92A432B107D9F722E0A4E2B1E001C0F8
:100130001D92A13CB207E1F710E0C3E8D0E004C093
:100140002197FE010E94DD09C238D107C9F70E943C
:1001500067080C94570D0C940000282F3091E00193
:10016000313208F04AC08091BC018111FCCF9091DE
:10017000DF0142E04093BC012093BB012FEF2093AD
:10018000BA011092B9013093B801EFEBF1E0A8E9A0
:10019000B1E020E0321721F041914D932F5FFACF6B
:1001A0001092970120919701990F922B90939701AC
:1001B00090919601913061F410929601909197017F
:1001C0009093BB009091BC0093FDF8CF95EC01C0DB
:1001D00095EE9093BC009091BC019230E1F3909128
:1001E000BA019F3F79F08091BA01803241F080914D
:1001F000BA01803331F084E005C081E003C082E0C1
:1002000001C083E01092BE011092E0011092BD0186
:100210000895DC01ED91FC910190F081E02D0994AD
:100220000F931F93CF93DF938B01CAEBD2E098819A
:1002300021E02093BD019093DF011092BE01109246
:10024000E001A981BA8124E0829FC0011124BC0190
:100250006A5F7F4FED91FC9111970190F081E02D45
:10026000CD01099560E070E089819A810E940901C1
:1002700060E070E089819A810E940901B80189815A
:100280009A810E940901612F70E089819A810E9400
:10029000090181E0DF91CF911F910F910C94AD0086
:1002A000CF93DF93EC01DB01A40FB51F80917E0299
:1002B00090917F028C179D0719F180918202909195
:1002C0008302C817D907E1F08091860290918702D6
:1002D000C817D907A9F080918A0290918B02C8179C
:1002E000D90771F080918E0290918F02C817D907BB
:1002F00039F08091920290919302C817D90731F496
:1003000084EB90E09C012A1B3B0BD90128E631E0ED
:100310000E94D60924EB30E040E050E00E948609BC
:10032000CA01B90164577F4F8F4F9F4F8C2FDF91C8
:10033000CF910C9410011F93CF93DF93162FCAEB2C
:10034000D2E0988121E02093BD019093DF011092CB
:10035000BE011092E001A981BA81ED91FC91119743
:100360000190F081E02D682FCD01099589819A8156
:10037000DC01ED91FC910190F081E02D612F099558
:1003800081E0DF91CF911F910C94AD0090E0FC01D2
:10039000E051FF4F2491FC01E452FF4F3491FC01E6
:1003A000E853FF4FE491EE23B1F1222339F12330DA
:1003B00091F038F42130A9F0223001F584B58F7D19
:1003C00012C0273091F02830A1F02430B9F4809188
:1003D00080008F7D03C0809180008F7780938000A4
:1003E0000DC084B58F7784BD09C08091B0008F7730
:1003F00003C08091B0008F7D8093B000F0E0EE0FDD
:10040000FF1FE254FF4FA591B4918FB7F894EC9180
:10041000E32BEC938FBF089585ED8093BC00809112
:10042000BC0084FDFCCF1092BC01089540914F01A7
:10043000262F30E0240F311D21323105DCF42091CC
:10044000BC012430C9F4FC0180E090E0861758F428
:1004500030914F012191DC01A35DBE4FA30FB11D6F
:100460002C930196F3CF80914F01680F60934F0159
:1004700080E0089581E0089582E008950895089548
:100480000895E091750180917401E81730F4F0E06F
:10049000EA58FE4F808190E008958FEF9FEF089516
:1004A0009091750180917401981750F4E92FF0E054
:1004B000EA58FE4F208130E09F5F9093750102C0A3
:1004C0002FEF3FEFC90108958091740190E02091D2
:1004D0007501821B91090895CF92DF92EF92FF92EE
:1004E0000F931F93CF93DF937C01CB018A0120915F
:1004F000BD01222389F0EB016B01C40ED51ECC1582
:10050000DD0569F06991D701ED91FC910190F081D1
:10051000E02DC7010995F3CF642F0E941602C80190
:10052000DF91CF911F910F91FF90EF90DF90CF90CF
:100530000895CF93DF931F92CDB7DEB769832091E3
:10054000BD012223D1F02091E001203240F021E0D2
:1005500030E0FC013383228380E090E015C080917D
:10056000BE01E82FF0E0E154FE4F998190838F5F48
:100570008093BE018093E00105C061E0CE01019649
:100580000E94160281E090E00F90DF91CF910895D4
:100590003FB7F8948091290190912A01A0912B01F5
:1005A000B0912C0126B5A89B05C02F3F19F00196EC
:1005B000A11DB11D3FBFBA2FA92F982F8827820FE9
:1005C000911DA11DB11DBC01CD0142E0660F771F39
:1005D000881F991F4A95D1F708958F929F92AF92E5
:1005E000BF92CF92DF92EF92FF926B017C010E944B
:1005F000C8024B015C01C114D104E104F104F1F023
:100600000E94C802DC01CB0188199909AA09BB091B
:10061000883E9340A105B10570F321E0C21AD108CC
:10062000E108F10888EE880E83E0981EA11CB11C39
:10063000C114D104E104F10419F7DDCFFF90EF906C
:10064000DF90CF90BF90AF909F908F900895CF9202
:10065000DF92EF92FF920F931F93CF93DF936C0182
:100660007A018B01C0E0D0E0CE15DF0581F0D80122
:100670006D918D01D601ED91FC910190F081E02DFD
:10068000C6010995892B11F02196EECF7E01C70195
:10069000DF91CF911F910F91FF90EF90DF90CF905E
:1006A0000895089580E090E00895FC01538D448DF5
:1006B000252F30E0842F90E0821B930B541710F00D
:1006C000CF96089501970895FC01918D828D98171A
:1006D00061F0828DDF01A80FB11D5D968C91928D26
:1006E0009F5F9F73928F90E008958FEF9FEF089523
:1006F000FC01918D828D981731F0828DE80FF11DEC
:10070000858D90E008958FEF9FEF0895FC01918D06
:10071000228D892F90E0805C9F4F821B91098F73FF
:100720009927089581EE91E00E94860321E0892BAC
:1007300009F420E0822F0895FC01848DDF01A80FC9
:10074000B11DA35ABF4F2C91848D90E001968F73F9
:100750009927848FA689B7892C93A089B1898C9118
:10076000837080648C93938D848D981306C0028867
:10077000F389E02D80818F7D80830895EF92FF9231
:100780000F931F93CF93DF93EC0181E0888F9B8DB4
:100790008C8D981305C0E889F989808185FD26C074
:1007A000F62E0B8D10E00F5F1F4F0F731127E02EF9
:1007B0008C8DE8120CC00FB607FCFACFE889F989D6
:1007C000808185FFF5CFCE010E949C03F1CF8B8DF8
:1007D000FE01E80FF11DE35AFF4FF0829FB7F89436
:1007E0000B8FEA89FB89808180620AC09FB7F894E9
:1007F000EE89FF896083E889F9898081837080644C
:1008000080839FBF81E090E0DF91CF911F910F9196
:10081000FF90EF900895CF93DF93EC01888D8823AC
:10082000C9F0EA89FB89808185FD05C0A889B9895D
:100830008C9186FD0FC00FB607FCF5CF808185FF38
:10084000F2CFA889B9898C9185FFEDCFCE010E94A6
:100850009C03E7CFDF91CF91089580E090E0892B52
:1008600029F00E94920381110C94000008954F9288
:100870005F926F927F928F929F92AF92BF92CF9230
:10088000DF92EF92FF920F931F93CF93DF93CDB739
:10089000DEB72A970FB6F894DEBF0FBECDBF9A879A
:1008A00089874A015B0128013901C982DA82EB821A
:1008B000FC82A9019801C301B2010E94860C6B0160
:1008C0007C01A5019401C501B4010E94860C9B0125
:1008D000AC01C701B6010E94F5090E94F90C6B0139
:1008E0007C01A3019201C501B4010E94740A4B016D
:1008F0005C01A7019601C701B6010E94860C2B017D
:100900003C0120E030E040E852E40E94F50920E09C
:1009100030E048EC52E40E94F4096D837E838F83BB
:100920009887A7019601C701B6010E94F50920E04A
:1009300030E040E051E40E94860C9B01AC016D81E7
:100940007E818F8198850E94D80A0E94E3096B01FD
:100950007C0126EE3EE245E652E4C501B4010E9468
:10096000860C4B015C0126EE3EE245E652E4C701EF
:10097000B6010E94860C9B01AC01C501B4010E9426
:10098000F5096B017C01A301920160E070E080E851
:1009900092E40E94F40920E030E048EC52E40E9426
:1009A000F50920E030E040E253E40E94D80A0E94BA
:1009B000E30926EE3EE245E652E40E94860C4B0136
:1009C0005C01E985FA85EE0FFF1FEA56FD4F608056
:1009D000718069817A818B819C810E944A0BE985B3
:1009E000FA85EE0FFF1FE258FD4FA3018081918130
:1009F0000E945001E985FA85EE0FFF1FE256FD4F78
:100A000060807180A701960160E070E084E393E468
:100A10000E94F4090E944A0BE985FA85EE0FFF1F38
:100A2000EA57FD4FA301808191810E945001E98521
:100A3000FA85EE0FFF1FEA55FD4FE080F18020E0C0
:100A400030E04CE552E4C501B4010E94F4090E9473
:100A50004A0B29853A85220F331F22573D4FA701A4
:100A6000F901808191812A960FB6F894DEBF0FBEFE
:100A7000CDBFDF91CF911F910F91FF90EF90DF904D
:100A8000CF90BF90AF909F908F907F906F905F902E
:100A90004F900C9450018F929F92AF92BF92CF9241
:100AA000DF92EF92FF92CF936B017C0120E030E068
:100AB00040E85FE30E94D30A87FD12C020E030ECDB
:100AC0004AE555E4C701B6010E94790C181674F482
:100AD000C12C30ECD32E3AE5E32E35E4F32E06C0DC
:100AE000C12CD12C20E8E22E2FE3F22E6091BD0222
:100AF0007091BE028091BF029091C0020E94800B53
:100B00004B015C0120E030E040E855E4C701B6014C
:100B10000E94860C9B01AC01C501B4010E94D80A59
:100B200020E030E040E05FE30E94F50920E030E0A3
:100B300040E85FE30E94F4096B017C0120E030E0B3
:100B400040E450E40E94D30A87FD11C020E030E069
:100B50004FE753E4C701B6010E94790C181664F4FC
:100B6000C12CD12C9FE7E92E93E4F92E05C0C12CAE
:100B7000D12C80E4E82EFE2CC701B6010E94510B57
:100B8000F62E8091BA0291E09093BD018093DF012F
:100B90001092BE011092E0018091BB029091BC02C4
:100BA000DC01ED91FC910190F081E02D60E0099570
:100BB00081E00E94AD008091BA029091BC01911138
:100BC000FCCF91E09093BC019093BB012FEF209359
:100BD000BA011092B9011092B801909397019091C7
:100BE0009701880F892B809397018091960181301E
:100BF00061F410929601809197018093BB008091DF
:100C0000BC0083FDF8CF85EC01C085EE8093BC006D
:100C10008091BC018130E1F38091B901811103C061
:100C20009091B90101C091E0A8E9B1E0E6E7F1E0F7
:100C300080E0891721F02D9121938F5FFACF1092D8
:100C40007501809374018091BB029091BC02DC011C
:100C5000ED91FC910284F385E02D0995C82F682F52
:100C60006F76606180E00E949B016F2D8EEF0E9485
:100C70009B016C2F80E00E949B0165E070E080E0AA
:100C800090E00E94ED026C2F606A80E0CF91FF90AF
:100C9000EF90DF90CF90BF90AF909F908F900C948B
:100CA0009B010E94520D1F920F920FB60F921124BA
:100CB0002F933F934F935F936F937F938F939F9364
:100CC000AF93BF93EF93FF938091B900887F8036F5
:100CD00009F49CC068F5883209F45BC090F4803157
:100CE00009F454C038F4882309F4F6C0883009F4B4
:100CF0004DC0F6C0883109F44CC0803209F45DC0A3
:100D0000EFC0803409F468C048F4803309F455C05A
:100D1000883309F0E5C08093BA01D8C0803509F462
:100D20004FC0883509F45DC0883409F0D9C0D6C0F9
:100D3000883909F4C7C0A8F4883709F467C038F4C3
:100D4000883609F463C0803709F460C0C9C08838A8
:100D500009F4B8C0803909F45FC0803809F0C0C018
:100D60005BC0803B09F486C038F4803A09F466C061
:100D7000883A09F47FC0B4C0803C09F4A7C0883C1D
:100D800009F4A4C0883B09F48AC0AAC080919701E5
:100D900010C09091B9018091B801981770F5E09159
:100DA000B90181E08E0F8093B901F0E0E856FE4F63
:100DB00080818093BB0085EC86C08093BA018EC091
:100DC000E091B90181E08E0F8093B9018091BB0061
:100DD000F0E0E856FE4F80839091B9018091B80110
:100DE0006EC0E091B90181E08E0F8093B9018091CE
:100DF000BB00F0E0E856FE4F80838091BB0181117B
:100E00006DC081E08093960184EA61C083E08093A5
:100E1000BC0110927301CFCF80917301803208F032
:100E200051C0E091730181E08E0F80937301809136
:100E3000BB00F0E0ED5AFE4F8083BDCF85EC809380
:100E4000BC001092BC0180917301803230F4E091BB
:100E50007301F0E0ED5AFE4F10826091730170E073
:100E6000E0915101F091520183E591E009951092D2
:100E7000730136C084E08093BC011092500110923F
:100E80004F01E0914D01F0914E01099580914F0184
:100E9000811105C081E080934F0110922D01E091F6
:100EA000500181E08E0F80935001F0E0E35DFE4F32
:100EB00080818093BB009091500180914F019817E1
:100EC00008F479CF85E88093BC000AC085EC809354
:100ED000BC001092BC0104C01092BA010E940C0226
:100EE000FF91EF91BF91AF919F918F917F916F9102
:100EF0005F914F913F912F910F900FBE0F901F90D8
:100F000018951F920F920FB60F9211242F933F93B3
:100F10008F939F93AF93BF9380912501909126016A
:100F2000A0912701B09128013091240123E0230FE3
:100F30002D3720F40196A11DB11D05C026E8230F11
:100F40000296A11DB11D2093240180932501909349
:100F50002601A0932701B093280180912901909147
:100F60002A01A0912B01B0912C010196A11DB11D68
:100F70008093290190932A01A0932B01B0932C0117
:100F8000BF91AF919F918F913F912F910F900FBE85
:100F90000F901F9018951F920F920FB60F92112469
:100FA0002F933F934F935F936F937F938F939F9371
:100FB000AF93BF93EF93FF9381EE91E00E949C0368
:100FC000FF91EF91BF91AF919F918F917F916F9121
:100FD0005F914F913F912F910F900FBE0F901F90F7
:100FE00018951F920F920FB60F9211242F938F9383
:100FF0009F93EF93FF93E091F101F091F2018081D3
:10100000E091F701F091F80182FD12C0908180918A
:10101000FA018F5F8F732091FB01821751F0E091ED
:10102000FA01F0E0EF51FE4F958F8093FA0101C075
:101030008081FF91EF919F918F912F910F900FBE23
:101040000F901F901895AEEAB2E013961C921E9274
:10105000129748EE53E060E070E014964D935D9374
:101060006D937C93179784E091E011969C938E93F7
:10107000E1EEF1E013821282448355836683778325
:1010800086E191E09183808385EC90E09587848769
:1010900084EC90E09787868780EC90E0918B808B42
:1010A00081EC90E0938B828B82EC90E0958B848B2B
:1010B00086EC90E0978B868B118E128E138E148E99
:1010C000EAEBF2E080E48083B283A1830895789410
:1010D00084B5826084BD84B5816084BD85B582603D
:1010E00085BD85B5816085BD80916E0081608093EE
:1010F0006E00109281008091810082608093810057
:101100008091810081608093810080918000816066
:10111000809380008091B10084608093B1008091C1
:10112000B00081608093B00080917A0084608093E9
:101130007A0080917A00826080937A0080917A00B0
:10114000816080937A0080917A00806880937A0031
:101150001092C100E091F101F091F20182E08083F0
:10116000E091ED01F091EE011082E091EF01F0913C
:10117000F0018FEC80831092F901E091F501F0917C
:10118000F60186E08083E091F301F091F401808123
:1011900080618083E091F301F091F40180818860A7
:1011A0008083E091F301F091F40180818068808375
:1011B000E091F301F091F40180818F7D80831092A2
:1011C0007501109274011092BE011092E00110920C
:1011D000BC0181E08093BB011092960182E10E94E4
:1011E000C60183E10E94C6018091B9008E7F809381
:1011F000B9008091B9008D7F8093B90088E4809315
:10120000B80085E48093BC008EE392E090934E0199
:1012100080934D018FE392E09093520180935101AE
:1012200060E880E00E949B016AE070E080E090E06E
:101230000E94ED0260E070E08AE794E40E944B05B2
:1012400080E498E7ADE7B1E08093BD029093BE02E1
:10125000A093BF02B093C00260E070E080E792E428
:101260000E944B0560E471E080E00E941001C0E044
:10127000D0E0C12CD12C80E7E82E82E4F82E00E0EB
:1012800010E020EE30E440E050E060E870E4CE0191
:101290000E94370464EF71E080E090E00E94ED026C
:1012A00000E010E020E231E440E050E060E870E46B
:1012B000CE010E94370464EF71E080E090E00E946C
:1012C000ED02C12CD12C90EFE92E92E4F92E00E032
:1012D00010E020E231E440E050E060E870E4CE014C
:1012E0000E94370464EF71E080E090E00E94ED021C
:1012F00068EC70E080E090E00E94ED022196C4303E
:10130000D10509F0B6CF0E942D04B1CF052E97FB71
:101310001EF400940E949D0957FD07D00E94A50964
:1013200007FC03D04EF40C949D09509540953095E0
:1013300021953F4F4F4F5F4F089590958095709541
:1013400061957F4F8F4F9F4F0895A1E21A2EAA1BE0
:10135000BB1BFD010DC0AA1FBB1FEE1FFF1FA21765
:10136000B307E407F50720F0A21BB30BE40BF50B62
:10137000661F771F881F991F1A9469F760957095EB
:10138000809590959B01AC01BD01CF010895A29F6E
:10139000B001B39FC001A39F700D811D1124911D49
:1013A000B29F700D811D1124911D08950E94C709DF
:1013B000B7FF0895821B930B0895EE0FFF1F059052
:1013C000F491E02D09949F939F770E94BD0B0F909D
:1013D000002042F49058A2EA2AED3FE049E450E4AC
:1013E0000E940C0A0C943F0C5058BB27AA270E945D
:1013F0000C0A0C943F0C0E94310C38F00E94380CFF
:1014000020F039F49F3F19F426F40C94070C0EF4E5
:10141000E095E7FB0C94010CE92F0E94500C58F367
:10142000BA17620773078407950720F079F4A6F5C9
:101430000C94720C0EF4E0950B2EBA2FA02D0B011C
:10144000B90190010C01CA01A0011124FF27591B09
:1014500099F0593F50F4503E68F11A16F040A22F0F
:10146000232F342F4427585FF3CF46953795279580
:10147000A795F0405395C9F77EF41F16BA0B620B7F
:10148000730B840BBAF09150A1F0FF0FBB1F661FC6
:10149000771F881FC2F70EC0BA0F621F731F841F09
:1014A00048F4879577956795B795F7959E3F08F02F
:1014B000B0CF9395880F08F09927EE0F97958795F1
:1014C00008950E94310C60F080E891E009F49EEFED
:1014D0000E94380C28F040E851E071F45EEF0CC037
:1014E0000C94070C0C94720CE92FE0780E94500CBD
:1014F00040F3092E052AB1F3261737074807590785
:1015000038F00E2E07F8E02569F0E025E0640AC007
:10151000EF6307F8009407FADB01B9019D01DC01D4
:10152000CA01AD01EF930E94EF0A0E943F0C0E9496
:10153000A40A5F91552339F02BED3FE049E450FDBB
:1015400049EC0C94F5090895DF93DD27B92FBF7797
:1015500040E85FE31616170648075B0718F4D92F13
:101560000E947E0C9F938F937F936F930E94390DFF
:10157000E8E6F0E00E940A0C0E943F0C2F913F9198
:101580004F915F910E94990CDD2351F09058A2EA8F
:101590002AED3FE049EC5FE3D0785D270E940C0A1A
:1015A000DF910C943F0C0E94DD0B08F481E008955C
:1015B0000E94EC0A0C943F0C0E94380C58F00E94D8
:1015C000310C40F029F45F3F29F00C94010C5111CB
:1015D0000C94730C0C94070C0E94500C68F3992324
:1015E000B1F3552391F3951B550BBB27AA2762171F
:1015F0007307840738F09F5F5F4F220F331F441F2C
:10160000AA1FA9F335D00E2E3AF0E0E832D091505F
:101610005040E695001CCAF72BD0FE2F29D0660F4C
:10162000771F881FBB1F261737074807AB07B0E88F
:1016300009F0BB0B802DBF01FF2793585F4F3AF095
:101640009E3F510578F00C94010C0C94730C5F3F95
:10165000E4F3983ED4F3869577956795B795F7951B
:101660009F5FC9F7880F911D9695879597F9089503
:10167000E1E0660F771F881FBB1F6217730784079F
:10168000BA0720F0621B730B840BBA0BEE1F88F7AE
:10169000E09508950E94510B6894B1110C94730C5D
:1016A00008950E94580C88F09F5798F0B92F9927F9
:1016B000B751B0F0E1F0660F771F881F991F1AF03D
:1016C000BA95C9F714C0B13091F00E94720CB1E024
:1016D00008950C94720C672F782F8827B85F39F023
:1016E000B93FCCF3869577956795B395D9F73EF4D6
:1016F00090958095709561957F4F8F4F9F4F08957E
:10170000E89409C097FB3EF490958095709561959B
:101710007F4F8F4F9F4F9923A9F0F92F96E9BB2751
:101720009395F695879577956795B795F111F8CFCD
:10173000FAF4BB0F11F460FF1BC06F5F7F4F8F4F38
:101740009F4F16C0882311F096E911C0772321F02E
:101750009EE8872F762F05C0662371F096E8862FC6
:1017600070E060E02AF09A95660F771F881FDAF71D
:10177000880F9695879597F90895DF93CF931F93D8
:101780000F938B01EC01E5E9F0E00E940A0C0E9446
:101790003F0C9801AE018B01EC0160E070E080E845
:1017A0009FE30E94F4090E94F90C9801AE010F9189
:1017B0001F91CF91DF910C94990C990F0008550F50
:1017C000AA0BE0E8FEEF16161706E807F907C0F0C7
:1017D00012161306E407F50798F0621B730B840BCF
:1017E000950B39F40A2661F0232B242B252B21F4A9
:1017F00008950A2609F4A140A6958FEF811D811D49
:10180000089597F99F6780E870E060E008959FEF82
:1018100080EC0895DF93CF931F930F93FF92EF9285
:10182000DF927B018C01689406C0DA2EEF010E94E2
:10183000990CFE01E894A59125913591459155911A
:10184000A6F3EF010E940C0AFE019701A801DA94A9
:1018500069F7DF90EF90FF900F911F91CF91DF918B
:10186000089500240A941616170618060906089506
:1018700000240A9412161306140605060895092E6C
:101880000394000C11F4882352F0BB0F40F4BF2BDB
:1018900011F460FF04C06F5F7F4F8F4F9F4F08951B
:1018A00057FD9058440F551F59F05F3F71F0479511
:1018B000880F97FB991F61F09F3F79F087950895F6
:1018C000121613061406551FF2CF4695F1DF08C015
:1018D000161617061806991FF1CF86957105610532
:1018E00008940895E894BB2766277727CB0197F9DA
:1018F00008950E94DD0B08F48FEF08959B01AC0161
:1019000060E070E080E89FE30C94D80A0E94990C94
:101910000C943F0C0E94310C38F00E94380C20F0DF
:10192000952311F00C94010C0C94070C11240C94C9
:10193000730C0E94500C70F3959FC1F3950F50E00B
:10194000551F629FF001729FBB27F00DB11D639F71
:10195000AA27F00DB11DAA1F649F6627B00DA11D17
:10196000661F829F2227B00DA11D621F739FB00DBD
:10197000A11D621F839FA00D611D221F749F33272D
:10198000A00D611D231F849F600D211D822F762FC6
:101990006A2F11249F5750409AF0F1F088234AF0A3
:1019A000EE0FFF1FBB1F661F771F881F915050400F
:1019B000A9F79E3F510580F00C94010C0C94730C18
:1019C0005F3FE4F3983ED4F3869577956795B79596
:1019D000F795E7959F5FC1F7FE2B880F911D9695B0
:1019E000879597F9089519F416F40C94070C0C9444
:1019F0003D0D0E94580CB8F39923C9F3B6F39F57D5
:101A0000550B87FF0E944B0D0024A0E640EA900191
:101A100080585695979528F4805C660F771F881F2D
:101A200020F026173707480730F4621B730B840B2E
:101A3000202931294A2BA695179407942025312572
:101A40004A2758F7660F771F881F20F02617370799
:101A5000480730F4620B730B840B200D311D411DC0
:101A6000A09581F7B901842F9158880F9695879595
:101A700008959B01AC010C94860C9F3F31F091506E
:101A800020F4879577956795B795880F911D969562
:101A9000879597F9089591505040660F771F881FDA
:101AA000D2F7089581E090E0F8940C94570DF894E3
:021AB000FFCF66
:101AB2000000000099026C025203400264025002CC
:101AC200410200000000BE03270355030B048603F6
:041AD200640378032E
:00000001FF
