:100000000C9435010C945D010C945D010C945D0120
:100010000C945D010C945D010C945D010C945D01E8
:100020000C945D010C945D010C945D010C945D01D8
:100030000C945D010C945D010C945D010C945D01C8
:100040000C94F50F0C945D010C9444090C941E095A
:100050000C945D010C945D010C945D010C945D01A8
:100060000C94070E0C945D01130F170F170F170F49
:10007000170F170F170F170F270E170F170F170F41
:10008000170F170F170F170F270E170F170F170F31
:10009000170F170F170F170F2F0E170F170F170F19
:1000A000170F170F170F170F550E170F170F170FE3
:1000B000170F170F170F170F2F0E170F170F170FF9
:1000C000170F170F170F170F5B0E170F170F170FBD
:1000D000170F170F170F170F610E170F170F170FA7
:1000E000170F170F170F170F730E170F170F170F85
:1000F000170F170F170F170F9D0E170F170F170F4B
:10010000170F170F170F170F670E170F170F170F70
:10011000170F170F170F170F810E170F170F170F46
:10012000170F170F170F170FA00E170F170F170F17
:10013000170F170F170F170FA00E170F170F170F07
:10014000170F170F170F170FA00E170F170F170FF7
:10015000170F170F170F170FA00E170F170F170FE7
:10016000170F170F170F170FA90E170F170F170FCE
:10017000170F170F170F170FDA0E170F170F170F8D
:10018000170F170F170F170FA90E170F170F170FAE
:10019000170F170F170F170FDA0E170F170F170F6D
:1001A000170F170F170F170FC10E170F170F170F76
:1001B000170F170F170F170FDE0E170F170F170F49
:1001C000170F170F170F170FDE0E170F170F170F39
:1001D000170F170F170F170FF30E170F170F170F14
:1001E000170F170F170F170F0D0F170F170F170FE9
:1001F000170F170F170F170F0D0F072C7AA5BA6CD3
:10020000C590DA3B9365FC8BBC53F810FD3C5692CD
:10021000834DBD879D3AB63DCBC9BF5BBE73DA0F38
:10022000C93F00000000250028002B00040404043E
:100230000404040402020202020203030303030390
:10024000010204081020408001020408102001026D
:100250000408102000000008000201000003040749
:100260000000000000000000E80D11241FBECFEFC9
:10027000D8E0DEBFCDBF12E0A0E0B1E0E4EFFAE2EB
:1002800002C005900D92A438B107D9F726E0A4E882
:10029000B2E001C01D92A937B207E1F711E0C5E352
:1002A000D1E004C02197FE010E947712C433D10728
:1002B000C9F70E9450100C9478150C940000CF924E
:1002C000DF92EF92FF920F931F93CF93DF938C01F6
:1002D000DB01C0E0D0E07A0181E0E81AF108452BAB
:1002E000A1F0F80180819181FC01208131816D01B3
:1002F000FFEFCF1ADF0A6C91C801F9010995892B2C
:1003000021F02196A701D601E6CFCE01DF91CF9152
:100310001F910F91FF90EF90DF90CF900895089577
:1003200080E090E00895FC01238D348D231738F090
:100330008FE390E0821B9109830F911D0895832F15
:1003400090E0821B910901970895FC01918D828DA7
:10035000981761F0828DDF01A80FB11D5D968C9119
:10036000928D9F5F9F73928F90E008958FEF9FEF24
:100370000895FC01918D828D981731F0828DE80FE0
:10038000F11D858D90E008958FEF9FEF0895FC019A
:10039000218D30E0205C3F4F828DA901481B51091F
:1003A000CA018F739927089583E195E00E94C701E0
:1003B00021E0892B09F420E0822F0895CF92DF926B
:1003C000EF92FF921F93CF93DF93EC016A017B01C1
:1003D000122F60E079E08DE390E0A70196010E9482
:1003E0003612DA01C9010197A109B109B695A7959D
:1003F000979587959C01E889F98982E08083C114EB
:1004000081EED806E104F10421F0211580E13807DE
:10041000A8F0E889F989108260E874E88EE190E03C
:10042000A70196010E943612DA01C9010197A109BC
:10043000B109B695A795979587959C01EC85FD85A3
:100440003083EE85FF852083188EEC89FD8910832B
:10045000EA89FB89808180618083EA89FB898081C8
:1004600088608083EA89FB89808180688083EA894B
:10047000FB8980818F7D8083DF91CF911F91FF90D9
:10048000EF90DF90CF900895FC01848DDF01A80FDD
:10049000B11DA35ABF4F8C91248D30E02F5F3F4F89
:1004A0002F733078332334F421503109206C3F6F9F
:1004B0002F5F3F4F248FA689B7898C93A089B1897C
:1004C0008C91837080648C93938D848D981306C077
:1004D0000288F389E02D80818F7D808308950F93BA
:1004E0001F93CF93DF93EC0181E0888F9B8D8C8DE0
:1004F000981307C0E889F989808185FD04C080E0F0
:1005000003C080E001C081E0882391F08FB7F894A8
:1005100091E0992359F0EE89FF896083E889F98990
:10052000908193709064908390E0F3CF8FBF34C03C
:100530002B8D30E02F5F3F4F2F733078332334F40F
:1005400021503109206C3F6F2F5F3F4F162F022F34
:100550008C8D08130CC00FB607FCFACFE889F98917
:10056000808185FFF5CFCE010E944402F1CF8B8DB3
:10057000FE01E80FF11DE35AFF4F10839FB7F89477
:1005800081E0882341F00B8FEA89FB8980818062BA
:10059000808380E0F6CF9FBF81E090E0DF91CF9134
:1005A0001F910F9108951F93CF93DF93EC01188D46
:1005B000112329F1EA89FB89808185FD07C0A8897B
:1005C000B9898C9186FD04C0812F03C0812F01C0A1
:1005D00080E08823A1F00FB607FC05C0908195FD4F
:1005E00003C080E001C080E0882321F3E889F98915
:1005F000808185FFDFCFCE010E944402DBCFDF91F7
:10060000CF911F91089580E090E0892B19F00E940E
:10061000D40101C080E081110E9400000895FC0116
:100620004383548365837683089520E4FC0120830B
:1006300020EB35E03283218308950F931F93CF93EE
:10064000DF93EC01062F142F688189819A810E9423
:100650002C0F89819A81DC01ED91FC910190F08150
:10066000E02D602F099589819A81DC01ED91FC9143
:100670000190F081E02D612F099589819A810E9476
:10068000280FDF91CF911F910F910895DF92EF9284
:10069000FF920F931F93CF93DF93EC01162FD42E6D
:1006A000E52EF22E032F688189819A810E942C0FFA
:1006B000612F70E0660F771F660F771F6A5F7F4FAD
:1006C00089819A81DC01ED91FC910190F081E02D0E
:1006D000099589819A81DC01ED91FC910190F0816D
:1006E000E02D6D2D099589819A81DC01ED91FC91B8
:1006F0000190F081E02D6E2D099589819A81DC01B0
:10070000ED91FC910190F081E02D6F2D099589818B
:100710009A81DC01ED91FC910190F081E02D602F38
:10072000099589819A810E94280FDF91CF911F91AD
:100730000F91FF90EF90DF9008951F93CF93DF9379
:10074000EC01162F688189819A810E942C0F898182
:100750009A81DC01ED91FC910190F081E02D612FF7
:10076000099589819A810E94280F688141E08981D9
:100770009A810E94A40F89819A81DC01ED91FC91FC
:100780000284F385E02D0995DF91CF911F910895A3
:100790008F929F92AF92BF92CF92DF92EF92FF9291
:1007A0001F93CF93DF93EC016A017B0120E030E0DF
:1007B00040E85FE3C701B6010E94FB12882344F4BE
:1007C0000F2EC12CD12CF0E8EF2EFFE3FF2EF02DE1
:1007D00020E030EC4AE555E4C701B6010E94A114BF
:1007E00018164CF40F2EC12CF0ECDF2EFAE5EF2E8C
:1007F000F5E4FF2EF02D8B809C80AD80BE8020E044
:1008000030E040E855E4C701B6010E94A6146B0130
:100810007C01C501B4010E94A813A70196010E94A2
:10082000001320E030E040E05FE30E948F1220E000
:1008300030E040E85FE30E948E126B017C0120E013
:1008400030E040E450E40E94FB12882334F4C12CD1
:10085000D12C6894EE24E6F8FE2C20E030E04FE73F
:1008600053E4C701B6010E94A114181644F40F2ED8
:10087000C12CD12CFFE7EF2EF3E4FF2EF02DC701A2
:10088000B6010E947913F62E60E0CE010E949D030E
:10089000182F482F4F76406160E0CE010E941D0363
:1008A0004F2D6EEFCE010E941D03412F60E0CE015F
:1008B0000E941D0365E070E080E090E00E94BB0FA5
:1008C000412F406A60E0CE010E941D03DF91CF916D
:1008D0001F91FF90EF90DF90CF90BF90AF909F90CF
:1008E0008F9008950F931F93CF93DF938C01D62F92
:1008F00060E00E949D03C82FCF764C2F406160E0DE
:10090000C8010E941D03C0654C2F60E0C8010E9411
:100910001D034D2F6EEFC8010E941D0365E070E0BE
:1009200080E090E00E94BB0F4C2F4F74406A60E063
:10093000C8010E941D03DF91CF911F910F9108956F
:1009400040E860E00E941D036AE070E080E090E013
:100950000E94BB0F08951F93CF93DF93EC01162FD6
:1009600089819A810E94A80FCE010E94A0041123C0
:1009700029F0612FCE010E94720407C040E050E0D0
:100980006AE774E4CE010E94C80340E458E76DE7CB
:1009900071E0CE010E940F03DF91CF911F91089566
:1009A00060E080EA94E00E94AB0440E050E060E741
:1009B00072E480EA94E00E94C8030895AF92BF9267
:1009C000CF92DF92EF92FF920F931F93CF93DF931B
:1009D00000D000D01F92CDB7DEB729834B835C8354
:1009E000262F8B819C81BC01600F711F222331F067
:1009F00064EB70E0601B710B680F791F072E000C11
:100A0000880B990B1F921F9221E02F9324EF2F93B5
:100A10000F2EFCE8AF2EB12CC12CD12CF02D14EBF5
:100A2000E12EF12C00E010E020E030E0A9010E946E
:100A300059100F900F900F900F90E9819B0140E0AB
:100A400050E06E2F80EA94E00E9446030F900F90D2
:100A50000F900F900F90DF91CF911F910F91FF900A
:100A6000EF90DF90CF90BF90AF9008954F925F923C
:100A70006F927F928F929F92AF92BF92CF92DF92AE
:100A8000EF92FF920F931F93CF93DF93CDB7DEB713
:100A900028970FB6F894DEBF0FBECDBFCB01BA01C9
:100AA000280139019B01AC010E94A6144B015C0195
:100AB000A3019201C301B2010E94A6149B01AC01E3
:100AC000C501B4010E948F120E9419154B015C01EF
:100AD0009B01AC01C301B2010E9400130E947D1270
:100AE00069837A838B839C83A5019401C501B4013A
:100AF0000E94A6142B013C019B01AC0160E070E058
:100B000088EC92E40E948E1220E030E040E852E44B
:100B10000E948E126D837E838F83988720E030E061
:100B200040E050ECC501B4010E94A61420E030E082
:100B300040E051E40E94A6149B01AC016D817E81CE
:100B40008F8198850E9400130E947D129B01AC0149
:100B500069817A818B819C810E948F1220EE3EE216
:100B600045E652E40E94A6140E947213072E000C60
:100B7000880B990B0E94AA134B015C0120E030E026
:100B800044E253E4C301B2010E948E1220E030E03F
:100B900040E253EC0E9400130E947D1220EE3EE2E0
:100BA00045E652E40E94A6140E947213072E000C20
:100BB000880B990B0E94AA139B01AC0160E070E0C6
:100BC00084E393E40E948E1220E030E0A9010E94A9
:100BD0008F120E947213072E000C880B990B0E9433
:100BE000AA132B013C0120E030E0A901C501B401AA
:100BF0000E94A11418167CF420E030E044E353E492
:100C0000C501B4010E94FB1288232CF4F7018082F5
:100C10009182A282B38220E030E0A901C301B20137
:100C20000E94A11418167CF420E030E044E353E461
:100C3000C301B2010E94FB1288232CF4F60140820A
:100C400051826282738228960FB6F894DEBF0FBE7F
:100C5000CDBFDF91CF911F910F91FF90EF90DF906B
:100C6000CF90BF90AF909F908F907F906F905F904C
:100C70004F900895DC01ED91FC910280F381E02D0D
:100C800042E050E06EEF71E0099508950E949A10DD
:100C900008952115310549F4DC01ED91FC91019095
:100CA000F081E02D642F099508950E948211089526
:100CB0009A01AB0160E070E00E9449060895DC01F2
:100CC000ED91FC910190F081E02D09950895611559
:100CD000710581F0FB0101900020E9F73197AF0128
:100CE000461B570BDC01ED91FC910280F381E02D56
:100CF0000995089580E090E00895CF92DF92EF92F9
:100D0000FF920F931F93CF93DF936C01EB017A0156
:100D100061E072E083E195E00E946706F70160817F
:100D20007181828193810E9472138B0128813981A4
:100D30004A815B816C81C6010E94DE0464E172E03D
:100D400083E195E00E946706F701648175818681E1
:100D500097810E9472138B012D813E814F815885AE
:100D60006985C6010E94DE0467E272E083E195E0D6
:100D70000E946706F70160857185828593850E94D0
:100D800072138B012A853B854C855D856E85C60176
:100D90000E94DE04F70180819181A281B3818F8757
:100DA000988BA98BBA8B6AE372E083E195E00E948D
:100DB00067064F85588969897A8922E030E083E1A6
:100DC00095E00E94E811F70184819581A681B781A1
:100DD0008B8B9C8BAD8BBE8B6DE472E083E195E0D9
:100DE0000E9467064B895C896D897E8922E030E02C
:100DF00083E195E00E94E811F70180859185A28545
:100E0000B3858F8B988FA98FBA8F60E672E083E1EC
:100E100095E00E9467064F89588D698D7A8D22E092
:100E200030E083E195E00E94E811DF91CF911F91BE
:100E30000F91FF90EF90DF90CF9008952F923F9207
:100E40004F925F926F927F928F929F92AF92BF92DA
:100E5000CF92DF92EF92FF920F931F93CF93DF9386
:100E6000CDB7DEB72C970FB6F894DEBF0FBECDBF5F
:100E70004C013B01BA01A901980187011501260126
:100E8000CE0109966C0104977C01C4010E943605CD
:100E900029823A824B825C82AE014F5F5F4FB30181
:100EA000C4010E947D062C960FB6F894DEBF0FBEDB
:100EB000CDBFDF91CF911F910F91FF90EF90DF9009
:100EC000CF90BF90AF909F908F907F906F905F90EA
:100ED0004F903F902F9008956F927F928F929F92A4
:100EE000AF92BF92CF92DF92EF92FF920F931F9338
:100EF000CF93DF933C01C0E0D0E0C430D105ECF4E7
:100F00008BE18C9FB0018D9F700D11246C5C7B4F29
:100F10000F2EA12CB12CF4EBCF2EF2E4DF2EF02D0E
:100F2000E12CF12C00E810E420E030E040EC50E44B
:100F3000C3010E941E072196E0CF68EC70E080E0BC
:100F400090E00E94BB0F0F2EF0E98F2E992493940E
:100F5000F02D80EB881684E0980694F5C0E0D0E090
:100F6000C430D1054CF5B401092C000C880B990B49
:100F70000E94AA1320E030E048EC52E40E940013E3
:100F80007B018C012BE12C9FC0012D9F900D112422
:100F9000BC016C5C7B4F0F2EA12CB12CF4EBCF2E3F
:100FA000F2E4DF2EF02D20E030E040EC50E4C3010D
:100FB0000E941E072196D4CF8AE0880E911CC9CFCB
:100FC000DF91CF911F910F91FF90EF90DF90CF9025
:100FD000BF90AF909F908F907F906F9008952F92C9
:100FE0003F924F925F926F927F928F929F92AF92B9
:100FF000BF92CF92DF92EF92FF920F931F93CF9306
:10100000DF93CDB7DEB760970FB6F894DEBF0FBEA3
:10101000CDBF9A8789871B01588B4F8788E0E0E016
:10102000F1E0DE01119601900D928A95E1F7898534
:101030009A850E946C0768EE73E080E090E00E9461
:10104000BB0F1C861B861E861D8602C01C861B8647
:101050002D853E858F859889281739070CF0A3C008
:10106000EB85FC85EE0FFF1F21E030E02C0F3D1FCC
:10107000E20FF31F208131814BE1429FC001439F6A
:10108000900D1124FC01EC5CFB4F4F010F2EA12CA5
:10109000B12CF4EBCF2EF2E4DF2EF02DE12CF12C6D
:1010A00000E111E420E030E040EC50E4BF0189852C
:1010B0009A850E941E0764E670E080E090E00E943E
:1010C000BB0FB101665A7F4F072E000C880B990B9E
:1010D0000E94AA135B016C0120E030E040EC50E478
:1010E000B40189859A850E941E0764E670E080E05D
:1010F00090E00E94BB0FE12CF12C00E411E420E011
:1011000030E040EC50E4B40189859A850E941E07C6
:1011100064E670E080E090E00E94BB0F412C512C0F
:101120004214530494F5812C912CF4E08F16910411
:1011300044F52BE1289DC001299D900D11249C01AF
:101140002C5C3B4F3901F90167857089818992894F
:1011500020E030E040EA50E40E948F125B016C0115
:10116000E12CF12C00E411E420E030E040EC50E40C
:10117000B30189859A850E941E07FFEF8F1A9F0A87
:10118000D4CF2FEF421A520ACBCF8D859E85019680
:101190009E878D87EB85FC853196FC87EB8734979E
:1011A0000CF054CF55CF60960FB6F894DEBF0FBE4B
:1011B000CDBFDF91CF911F910F91FF90EF90DF9006
:1011C000CF90BF90AF909F908F907F906F905F90E7
:1011D0004F903F902F900895019779F56F3F7F4F83
:1011E00061F5E3E1F5E01382128288EE93E0A0E07E
:1011F000B0E084839583A683B78380EC91E09183EC
:10120000808385EC90E09587848784EC90E09787D5
:10121000868780EC90E0918B808B81EC90E0938BC3
:10122000828B82EC90E0958B848B86EC90E0978BA0
:10123000868B118E128E138E148E08951F920F922C
:101240000FB60F9211242F933F934F935F936F9399
:101250007F938F939F93AF93BF93EF93FF9383E11C
:1012600095E00E944402FF91EF91BF91AF919F9151
:101270008F917F916F915F914F913F912F910F903F
:101280000FBE0F901F9018951F920F920FB60F92DE
:1012900011242F938F939F93AF93BF93EF93FF935B
:1012A000E0912305F0912405808182FD14C0E3E1E3
:1012B000F5E0A689B7892C91818D8F5F8F73928D10
:1012C000891771F0DF01E18DF0E0ED5EFA4F258FB7
:1012D00059968C9305C0E0912905F0912A058081EB
:1012E000FF91EF91BF91AF919F918F912F910F90AF
:1012F0000FBE0F901F901895019709F074C06F3FB3
:101300007F4F09F070C085E0E7EBF1E0A8EFB4E0B3
:1013100001900D928A95E1F785E0E2EBF1E0ADEF07
:10132000B4E001900D928A95E1F785E0EDEAF1E0F5
:10133000A2E0B5E001900D928A95E1F785E0E8EA38
:10134000F1E0ADEDB4E001900D928A95E1F785E012
:10135000E3EAF1E0A2EEB4E001900D928A95E1F7A4
:1013600085E0EEE9F1E0A7EEB4E001900D928A95F8
:10137000E1F785E0E9E9F1E0A2ECB4E001900D923B
:101380008A95E1F785E0E4E9F1E0A7ECB4E00190AB
:101390000D928A95E1F785E0EFE8F1E0ACECB4E07E
:1013A00001900D928A95E1F785E0EAE8F1E0A7EA7D
:1013B000B4E001900D928A95E1F785E0E5E8F1E06F
:1013C000ACEAB4E001900D928A95E1F785E0E0E89F
:1013D000F1E0A1EBB4E001900D928A95E1F780EA8B
:1013E00094E00E9415030895019709F079C06F3FBA
:1013F0007F4F09F075C085E0EBE7F1E0A9E1B4E0CB
:1014000001900D928A95E1F785E0E6E7F1E0AEE123
:10141000B4E001900D928A95E1F785E0E1E7F1E013
:10142000A3E2B4E001900D928A95E1F785E0ECE645
:10143000F1E0AEEFB3E001900D928A95E1F785E01F
:10144000E7E6F1E0A3E0B4E001900D928A95E1F7C0
:1014500085E0E2E6F1E0A8E0B4E001900D928A9523
:10146000E1F785E0EDE5F1E0A3EEB3E001900D9248
:101470008A95E1F785E0E8E5F1E0A8EEB3E00190B8
:101480000D928A95E1F785E0E3E5F1E0ADEEB3E09A
:1014900001900D928A95E1F785E0EEE4F1E0A8EC89
:1014A000B3E001900D928A95E1F785E0E9E4F1E07F
:1014B000ADECB3E001900D928A95E1F785E0E4E4AC
:1014C000F1E0A2EDB3E001900D928A95E1F78CE690
:1014D000E0EFF2E0ACE5B3E001900D928A95E1F720
:1014E00008954AE050E064E170E08CE593E00E94EA
:1014F000EF0768E873E180E090E00E94BB0F089579
:10150000AF92BF92CF92DF92EF92FF920F931F9311
:1015100026E040E855E260E070E083E195E00E945B
:10152000DE018CE593E00E94D00463E772E083E182
:1015300095E00E94FA110F2EA12CB12CF4EBCF2EC6
:10154000F2E4DF2EF02DE12CF12C00E810E420E095
:1015500030E040EA50E46CE573E0CB010E941E07E6
:1015600065E772E083E195E00E94FA1120E030E047
:1015700040EA50E467E773E08CE593E00E941E07C1
:1015800060E27EE480E090E00E94BB0F68EB7BE0CD
:1015900080E090E00E94BB0F1F910F91FF90EF90B1
:1015A000DF90CF90BF90AF900895019709F070C081
:1015B0006F3F7F4F09F06CC085E0EFE3F1E0A5EDF0
:1015C000B2E001900D928A95E1F785E0EAE3F1E05F
:1015D000AAEDB2E001900D928A95E1F785E0E5E38E
:1015E000F1E0AFEDB2E001900D928A95E1F785E070
:1015F000E0E3F1E0AAEBB2E001900D928A95E1F709
:1016000085E0EBE2F1E0AFEBB2E001900D928A955C
:10161000E1F785E0E6E2F1E0A4ECB2E001900D92A2
:101620008A95E1F785E0E1E2F1E0AFE9B2E001900F
:101630000D928A95E1F785E0ECE1F1E0A4EAB2E0F1
:1016400001900D928A95E1F785E0E7E1F1E0A9EAE2
:10165000B2E001900D928A95E1F785E0E2E1F1E0D8
:10166000A4E8B2E001900D928A95E1F785E0EDE003
:10167000F1E0A9E8B2E001900D928A95E1F785E0EA
:10168000E8E0F1E0AEE8B2E001900D928A95E1F772
:101690000895833069F028F48130B1F08230C1F0D0
:1016A00008958730C9F08830E9F0843001F506C02C
:1016B000E0E8F0E080818F7780830895E0E8F0E053
:1016C00080818F7D8083089584B58F7784BD089550
:1016D00084B58F7D84BD0895E0EBF0E080818F7745
:1016E00080830895E0EBF0E080818F7D8083089512
:1016F0001F93CF93DF93282F30E0F901EC5AFD4F71
:101700008491F901E05CFD4F1491F901E45DFD4F16
:10171000C491CC23D1F0D62F81110E94490BEC2F1C
:10172000F0E0EE0FFF1FEE5DFD4FA591B4918FB776
:10173000F894D11106C09C91E12FE095E923EC9338
:1017400003C0EC91E12BEC938FBFDF91CF911F9100
:10175000089585EC8093BC0010925306089585EDA2
:101760008093BC008091BC0084FDFCCF1092530696
:101770000895882321F085EC8093BC00089585E8C6
:101780008093BC00089590932C0680932B060895B7
:101790009093300680932F060895AC0190912D060A
:1017A000262F30E0290F311D21323105F4F48091CC
:1017B00053068430E1F490E00FC080912D06292F6C
:1017C00030E0F901E80FF11DDA01A20FB31F8C918F
:1017D000E55FF94F80839F5F961778F380912D0620
:1017E000680F60932D0680E0089581E0089582E0FF
:1017F00008950F93CF93413208F052C0C091530621
:10180000C111FCCF92E090935306009355069FEFD1
:1018100090935206109277064093760690E00AC0A5
:10182000E92FF0E0DB01AE0FBF1F3C91EA5AF94F00
:1018300030839F5F9417A0F310927806482F50E0F2
:10184000440F551F80917806482B4093780680916D
:101850005406813071F4109254068091780680937A
:10186000BB008091BC0083FDF8CF85EC8093BC0069
:1018700003C085EE8093BC00222321F080915306A3
:101880008230D1F3809152068F3F79F080915206D9
:10189000803241F080915206803331F4C3E005C0BC
:1018A000C1E003C0C2E001C0C4E08C2FCF910F9112
:1018B0000895413208F04BC0909153069111FCCF2E
:1018C00091E090935306209355062FEF20935206F4
:1018D00010927706240F209376069093780690E076
:1018E000880F991F90917806892B809378068091B4
:1018F0005406813071F410925406809178068093DA
:10190000BB008091BC0083FDF8CF85EC8093BC00C8
:1019100003C085EE8093BC00809153068130E1F3D3
:1019200080917706841710F44091770690E00BC001
:10193000292F30E0FB01E20FF31FD901AA5AB94F5A
:101940002C9120839F5F941798F3842F089580E053
:1019500008951092530681E0809355061092540624
:1019600061E082E10E94780B61E083E10E94780BE4
:10197000E9EBF0E080818E7F808380818D7F8083A2
:1019800088E48093B80085E48093BC0008950895AE
:1019900008950895E091080680910706E81730F44D
:1019A000F0E0E951FA4F808190E008958FEF9FEFCA
:1019B00008959091080680910706981750F4E92F32
:1019C000F0E0E951FA4F208130E09F5F90930806E4
:1019D00002C02FEF3FEFC90108958091070690E004
:1019E00020910806821B91090895CF92DF92EF9211
:1019F000FF920F931F93CF93DF938C016B017A01BA
:101A00008091E605882399F0C0E0D0E0CE15DF058F
:101A100090F4D801ED91FC910190F081E02DD60178
:101A2000AC0FBD1F6C91C80109952196EFCF642FB3
:101A3000C6010E94CD0BC701DF91CF911F910F917D
:101A4000FF90EF90DF90CF900895CF93DF931F9298
:101A5000CDB7DEB7FC0169839091E6059923D9F0F3
:101A600090910906903238F081E090E09383828370
:101A700080E090E017C080910A06E82FF0E0EA537A
:101A8000FA4F998190838F5F80930A0680930906AD
:101A900081E090E007C061E0CE0101960E94CD0B8D
:101AA00081E090E00F90DF91CF9108950F934091E6
:101AB0000906062F21E066EC75E08091C5050E94BD
:101AC000F90B10920A06109209061092E6050F9182
:101AD0000895FC011382128288EE93E0A0E0B0E04A
:101AE00084839583A683B78382ED91E0918380837D
:101AF0000895019739F46F3F7F4F21F480EB95E013
:101B00000E94690D08950895789484B5826084BD1B
:101B100084B5816084BD85B5826085BD85B58160F1
:101B200085BDEEE6F0E0808181608083E1E8F0E051
:101B30001082808182608083808181608083E0E880
:101B4000F0E0808181608083E1EBF0E0808184605F
:101B50008083E0EBF0E0808181608083EAE7F0E061
:101B600080818460808380818260808380818160C5
:101B700080838081806880831092C10008953FB780
:101B8000F8948091C1059091C205A091C305B091D0
:101B9000C40526B5A89B05C02F3F19F00196A11DCD
:101BA000B11D3FBFBA2FA92F982F8827820F911DF3
:101BB000A11DB11DBC01CD01660F771F881F991FA4
:101BC000660F771F881F991F089508950E94731547
:101BD0006FEF7FEF81E090E00E94790D6FEF7FEF74
:101BE00081E090E00E94EC086FEF7FEF81E090E0F1
:101BF0000E947C096FEF7FEF81E090E00E94F40982
:101C00006FEF7FEF81E090E00E94D50A08951F9268
:101C10000F920FB60F9211242F933F934F935F9320
:101C20006F937F938F939F93AF93BF93EF93FF93A4
:101C30008091B900E82FE87F8E2F90E0893C9105D4
:101C400008F0F5C0FC01EC5CFF4F0C94771280911A
:101C500078068093BB0081E00E94B90BE8C09091A8
:101C6000770680917606981780F4E091770681E0F8
:101C70008E0F80937706F0E0EA5AF94F80818093C7
:101C8000BB0081E00E94B90BD2C080915506882329
:101C900019F00E94AF0BCBC081E08093540684EA18
:101CA0008093BC0010925306C2C080E2809352061B
:101CB0000E94AF0BBCC080E3809352060E94AF0B22
:101CC000B6C088E3809352060E94A90BB0C0E09191
:101CD000770681E08E0F80937706F0E08091BB005D
:101CE000EA5AF94F8083909177068091760698178B
:101CF00020F481E00E94B90B9AC080E00E94B90BE9
:101D000096C0E091770681E08E0F80937706F0E031
:101D10008091BB00EA5AF94F808380915506882351
:101D200019F00E94AF0B83C081E08093540684EACF
:101D30008093BC00109253067AC00E94AF0B77C00C
:101D400083E0809353061092510681E00E94B90B04
:101D50006EC080915106803280F4E091510681E09E
:101D60008E0F80935106F0E08091BB00EF5CF94F3D
:101D7000808381E00E94B90B5AC080E00E94B90BB9
:101D800056C00E94A90B80915106803230F4E09138
:101D90005106F0E0EF5CF94F10826091510670E05F
:101DA000E0912F06F091300681E396E009951092BC
:101DB00051063DC080E00E94B90B39C084E0809399
:101DC000530610922E0610922D06E0912B06F091EC
:101DD0002C06099580912D06811105C081E0809324
:101DE0002D0610920B06E0912E0681E08E0F809357
:101DF0002E06F0E0E55FF94F80818093BB00909163
:101E00002E0680912D06981720F481E00E94B90BD0
:101E10000EC080E00E94B90B0AC081E00E94B90B9D
:101E20001092530604C0109252060E94AF0BFF910D
:101E3000EF91BF91AF919F918F917F916F915F9142
:101E40004F913F912F910F900FBE0F901F901895BB
:101E500061E00E94560D089581E08093E60560934D
:101E6000C50510920A061092090608958F929F9256
:101E7000AF92BF92CF92DF92EF92FF920F931F9398
:101E8000CF93DF93EC01D62EF42E48015901EE20BA
:101E900069F10E942C0F23E02E1520F40F2EF3E0A1
:101EA000EF2EF02D1FEF1E0DEE20E1F0E881F981FD
:101EB0000190F081E02D812F90E0880F991F880F0D
:101EC000991F880F991FA501940104C05695479545
:101ED000379527958A95D2F7CA01B901CE010995A0
:101EE000E12EE0CF60E0CE010E94560D30E23F15BA
:101EF00018F46894FF24F5F82C2D4F2D67EE75E04B
:101F00008D2D0E94590C1092080680930706DF91D0
:101F1000CF911F910F91FF90EF90DF90CF90BF90E6
:101F2000AF909F908F900895CF92EF920F931F9351
:101F3000C22EE12C00E010E098010E94360F1F91A4
:101F40000F91EF90CF90089521E00E94940F089593
:101F5000109208061092070610920A0610920906BF
:101F60000E94A90C87EC9CE00E94C30B88EC9CE0CB
:101F70000E94C80B08958F929F92AF92BF92CF920A
:101F8000DF92EF92FF926B017C010E94BF0D4B012B
:101F90005C011DC021E0C21AD108E108F10888EEF9
:101FA000880E83E0981EA11CB11CC114D104E10469
:101FB000F10469F00E94BF0DDC01CB018819990979
:101FC000AA09BB09883E9340A105B10518F7C114C1
:101FD000D104E104F10449F7FF90EF90DF90CF9036
:101FE000BF90AF909F908F9008951F920F920FB661
:101FF0000F9211240F931F932F933F934F935F934F
:102000006F937F938F939F93AF93BF930091BD0581
:102010001091BE052091BF053091C0059091BC057F
:10202000B901A8014F5F5F4F6F4F7F4F83E0890F6A
:102030008D3740F086E8890FB901A8014E5F5F4FE8
:102040006F4F7F4F8093BC054093BD055093BE05F5
:102050006093BF057093C0058091C1059091C20542
:10206000A091C305B091C4050196A11DB11D809337
:10207000C1059093C205A093C305B093C405BF9159
:10208000AF919F918F917F916F915F914F913F9110
:102090002F911F910F910F900FBE0F901F901895C9
:1020A0000E94840D0E94800A0E94710A0E9403030C
:1020B000FBCF4F925F926F927F92AF92BF92CF927F
:1020C000DF92EF92FF920F931F93CF93DF93CDB7E1
:1020D000DEB729013A019B01AC01241935094609F3
:1020E000570989899A89AB89BC89BC01CD016A19D4
:1020F0007B098C099D090E946712A8019701241988
:102100003509460957090E940C12C601B501620F34
:10211000731F841F951FDF91CF911F910F91FF9027
:10212000EF90DF90CF90BF90AF907F906F905F90D7
:102130004F9008954F925F926F927F928F929F92ED
:10214000AF92BF92CF92DF92EF92FF920F931F93C5
:10215000CF93DF938C014A015B01F22E9A01AB0110
:10216000C501B4010E945915882331F067E772E078
:10217000C8010E946706B5C024013501E89477F8CC
:102180002FEF3FEF4FE75FE7C301B2010E94591500
:10219000811110C02FEF3FEF4FE75FE7C301B2019E
:1021A0000E94FB12181634F46BE772E0C8010E941B
:1021B000670697C02FEF3FEF4FE75FE4C501B4011B
:1021C0000E94A114181634F46FE772E0C8010E944F
:1021D000670687C02FEF3FEF4FE75FECC501B40103
:1021E0000E94FB12882334F46FE772E0C8010E945A
:1021F000670677C020E030E0A901C501B4010E9464
:10220000FB12882354F46DE2C8010E945F066C0142
:10221000B7FAB094B7F8B09402C0C12CD12CD0E07A
:1022200060E070E080E09FE3DF1540F420E030E004
:1022300040E251E40E940013DF5FF6CF9B01AC0146
:10224000C501B4010E948F124B015C010E947913F9
:102250002B013C010E94A8139B01AC01C501B401F4
:102260000E948E124B015C012AE030E0B301A20112
:10227000C8010E944906E601C80FD91FFF2031F0AE
:102280006EE2C8010E945F06C80FD91F77247A94B6
:102290007F0CFF2021F120E030E040E251E4C50155
:1022A000B4010E94A6144B015C010E9479136B01DA
:1022B0007C014AE050E0C8010E945806C80FD91FAF
:1022C000B60180E090E00E94A8139B01AC01C5011B
:1022D000B4010E948E124B015C01F72CD7CF8C2FDA
:1022E0009D2FDF91CF911F910F91FF90EF90DF9085
:1022F000CF90BF90AF909F908F907F906F905F90A6
:102300004F9008958F929F92AF92BF92DF92EF927B
:10231000FF920F931F93CF93DF93CDB7DEB7A197B3
:102320000FB6F894DEBF0FBECDBF7C01CB01BA0162
:10233000D22E19A221E02D1520F00F2EFAE0DF2E6B
:10234000F02D8E010F5D1F4F8D2C912CA12CB12CE7
:10235000A50194010E943612E62F622F732F842F5D
:10236000952F01501109EA3014F4E05D01C0E95CD9
:10237000D801EC93611571058105910529F70115C7
:10238000110591F0F80101900020E9F73197AF01B4
:10239000401B510BD701ED91FC910280F381E02DA0
:1023A000B801C701099502C080E090E0A1960FB680
:1023B000F894DEBF0FBECDBFDF91CF911F910F917B
:1023C000FF90EF90DF90BF90AF909F908F90089517
:1023D0000F931F93CF93DF93EC010E9446068C016D
:1023E000CE010E943A06800F911FDF91CF911F917D
:1023F0000F9108950F931F93CF93DF93EC010E94E9
:1024000067068C01CE010E943A06800F911FDF9172
:10241000CF911F910F910895052E97FB1EF4009404
:102420000E94231257FD07D00E94361207FC03D0EA
:102430004EF40C94231250954095309521953F4FC2
:102440004F4F5F4F089590958095709561957F4FA0
:102450008F4F9F4F08950E945812A59F900DB49FD3
:10246000900DA49F800D911D11240895A1E21A2EB4
:10247000AA1BBB1BFD010DC0AA1FBB1FEE1FFF1F28
:10248000A217B307E407F50720F0A21BB30BE40B78
:10249000F50B661F771F881F991F1A9469F76095BF
:1024A0007095809590959B01AC01BD01CF01089579
:1024B000A29FB001B39FC001A39F700D811D112485
:1024C000911DB29F700D811D1124911D0895DB0196
:1024D0008F939F930E942B12BF91AF91A29F800D6B
:1024E000911DA39F900DB29F900D11240895EE0FA2
:1024F000FF1F0590F491E02D09949F939F770E9410
:10250000E5130F90002042F49058A2EA2AED3FE034
:1025100049E450E40E94A6120C9467145058BB275B
:10252000AA270E94A6120C9467140E94591438F02E
:102530000E94601420F039F49F3F19F426F40C94A3
:102540002F140EF4E095E7FB0C942914E92F0E9458
:10255000781458F3BA17620773078407950720F0B9
:1025600079F4A6F50C949A140EF4E0950B2EBA2F7C
:10257000A02D0B01B90190010C01CA01A001112489
:10258000FF27591B99F0593F50F4503E68F11A1635
:10259000F040A22F232F342F4427585FF3CF4695C6
:1025A00037952795A795F0405395C9F77EF41F16E8
:1025B000BA0B620B730B840BBAF09150A1F0FF0FB2
:1025C000BB1F661F771F881FC2F70EC0BA0F621F9E
:1025D000731F841F48F4879577956795B795F7958E
:1025E0009E3F08F0B0CF9395880F08F09927EE0F23
:1025F0009795879508950E94051408F481E0089541
:102600000E9414130C9467140E94601458F00E94E6
:10261000591440F029F45F3F29F00C94291451110A
:102620000C949B140C942F140E94781468F3992333
:10263000B1F3552391F3951B550BBB27AA276217BE
:102640007307840738F09F5F5F4F220F331F441FCB
:10265000AA1FA9F335D00E2E3AF0E0E832D09150FF
:102660005040E695001CCAF72BD0FE2F29D0660FEC
:10267000771F881FBB1F261737074807AB07B0E82F
:1026800009F0BB0B802DBF01FF2793585F4F3AF035
:102690009E3F510578F00C9429140C949B145F3FD5
:1026A000E4F3983ED4F3869577956795B795F795BB
:1026B0009F5FC9F7880F911D9695879597F90895A3
:1026C000E1E0660F771F881FBB1F6217730784073F
:1026D000BA0720F0621B730B840BBA0BEE1F88F74E
:1026E000E09508950E9479136894B1110C949B149D
:1026F00008950E94801488F09F5798F0B92F992769
:10270000B751B0F0E1F0660F771F881F991F1AF0DC
:10271000BA95C9F714C0B13091F00E949A14B1E093
:1027200008950C949A14672F782F8827B85F39F092
:10273000B93FCCF3869577956795B395D9F73EF475
:1027400090958095709561957F4F8F4F9F4F08951D
:10275000E89409C097FB3EF490958095709561953B
:102760007F4F8F4F9F4F9923A9F0F92F96E9BB27F1
:102770009395F695879577956795B795F111F8CF6D
:10278000FAF4BB0F11F460FF1BC06F5F7F4F8F4FD8
:102790009F4F16C0882311F096E911C0772321F0CE
:1027A0009EE8872F762F05C0662371F096E8862F66
:1027B00070E060E02AF09A95660F771F881FDAF7BD
:1027C000880F9695879597F90895DF93CF931F9378
:1027D0000F938B01EC01EAEFF1E00E9432140E94AA
:1027E00067149801AE018B01EC0160E070E080E8B5
:1027F0009FE30E948E120E9419159801AE010F915D
:102800001F91CF91DF910C94B914990F0008550FC7
:10281000AA0BE0E8FEEF16161706E807F907C0F066
:1028200012161306E407F50798F0621B730B840B6E
:10283000950B39F40A2661F0232B242B252B21F448
:1028400008950A2609F4A140A6958FEF811D811DE8
:10285000089597F99F6780E870E060E008959FEF22
:1028600080EC0895DF93CF931F930F93FF92EF9225
:10287000DF927B018C01689406C0DA2EEF010E9482
:10288000B914FE01E894A591259135914591559192
:10289000A6F3EF010E94A612FE019701A801DA94A7
:1028A00069F7DF90EF90FF900F911F91CF91DF912B
:1028B000089500240A9416161706180609060895A6
:1028C00000240A9412161306140605060895092E0C
:1028D0000394000C11F4882352F0BB0F40F4BF2B7B
:1028E00011F460FF04C06F5F7F4F8F4F9F4F0895BB
:1028F00057FD9058440F551F59F05F3F71F04795B1
:10290000880F97FB991F61F09F3F79F08795089595
:10291000121613061406551FF2CF4695F1DF08C0B4
:10292000161617061806991FF1CF869571056105D1
:1029300008940895E894BB2766277727CB0197F979
:1029400008950E94051408F48FEF08950E94B914A9
:102950000C9467140E94591438F00E94601420F0FF
:10296000952311F00C9429140C942F1411240C9419
:102970009B140E94781470F3959FC1F3950F50E05B
:10298000551F629FF001729FBB27F00DB11D639F21
:10299000AA27F00DB11DAA1F649F6627B00DA11DC7
:1029A000661F829F2227B00DA11D621F739FB00D6D
:1029B000A11D621F839FA00D611D221F749F3327DD
:1029C000A00D611D231F849F600D211D822F762F76
:1029D0006A2F11249F5750409AF0F1F088234AF053
:1029E000EE0FFF1FBB1F661F771F881F91505040BF
:1029F000A9F79E3F510580F00C9429140C949B1468
:102A00005F3FE4F3983ED4F3869577956795B79545
:102A1000F795E7959F5FC1F7FE2B880F911D96955F
:102A2000879597F9089519F416F40C942F140C94C3
:102A30005E150E948014B8F39923C9F3B6F39F572B
:102A4000550B87FF0E946C150024A0E640EA900118
:102A500080585695979528F4805C660F771F881FDD
:102A600020F026173707480730F4621B730B840BDE
:102A7000202931294A2BA695179407942025312522
:102A80004A2758F7660F771F881F20F02617370749
:102A9000480730F4620B730B840B200D311D411D70
:102AA000A09581F7B901842F9158880F9695879545
:102AB00008950E940514880B990B08959F3F31F0EB
:102AC000915020F4879577956795B795880F911D5C
:102AD0009695879597F9089591505040660F771F06
:102AE000881FD2F7089581E090E0F8940C9478154F
:042AF000F894FFCF88
:102AF40000000200010003000B00070000070007AC
:102B040000000300FDFF000A000500010600F9FFB4
:102B1400010200F6FF010900FBFF000500050000AB
:102B24000100FBFF0008000500010400F6FF01009E
:102B340000FBFF010B000700000700070000030073
:102B4400FDFF000A000500010600F9FF010200F67E
:102B5400FF010900FBFF0005000500000100FBFF69
:102B64000008000500010400F6FF010000FBFF015E
:102B74000B0007000007000700000300FDFF000A28
:102B8400000500010600F9FF010200F6FF0109003B
:102B9400FBFF0005000500000100FBFF0008000525
:102BA40000010400F6FF010000FBFF01000000002B
:102BB4006F025F019301D302C701A501B9010000AF
:102BC4000000250DF50C9001C90CED0CD90CCA0CB4
:102BD40000000000E60D5F0190018F01E60DE60D97
:102BE400E60D00000000E60D5F0190018F010D0A63
:102BF400005F6C696D622D3E6A6F696E74735B3041
:102C04005D3A20005F6C696D622D3E6A6F696E7477
:102C1400735B315D3A20005F6C696D622D3E6A6FB3
:102C2400696E74735B325D3A20005F6C696D622D6E
:102C34003E616E676C65735B305D3A20005F6C6962
:102C44006D622D3E616E676C65735B315D3A200089
:102C54005F6C696D622D3E616E676C65735B325D9E
:102C64003A2000300031006E616E00696E66006FBC
:042C74007666000080
:00000001FF
